:020000021000EC
:1080000000800020FDF4010045F5010047F5010066
:108010000000000000000000000000000000000060
:1080200000000000000000000000000049F5010011
:1080300000000000000000004BF501004DF50100BC
:108040004FF501004FF50100899B01004FF501003C
:108050004FF5010000000000019501004FF50100FF
:108060004FF501004FF501004FF501004FF50100FC
:108070004FF501004FF501004FF501004FF50100EC
:108080004FF50100558701004FF501004FF5010044
:10809000358801004FF50100C9F401004FF50100DA
:1080A0004FF501004FF50100000000000000000046
:1080B00000000000000000000000000000000000C0
:1080C00010B5064C2378002B07D1054B002B02D0AE
:1080D000044800E000BF0123237010BD742000207D
:1080E000000000009C0E0200084B10B5002B03D0CE
:1080F0000749084800E000BF07480368002B00D18B
:1081000010BD064B002BFBD09847F9E7000000009C
:10811000782000209C0E0200742000200000000047
:10812000164B002B00D1144B9D46402292029A1A06
:10813000924600218B460F461348144A121A00F04B
:1081400067F80F4B002B00D098470E4B002B00D048
:1081500098470020002104000D000D48002802D09F
:108160000C4800E000BF00F02DF82000290004F0CA
:1081700043F800F011F8C04600000800008000201D
:10818000000000000000000074200020002E0020ED
:108190000000000000000000084B10B50400002B98
:1081A00002D0002100E000BF054B1868836A002B55
:1081B00000D09847200000F033F8C04600000000CF
:1081C000340702000E4B70B500251E000D4CE41A5A
:1081D000A410A54204D0AB00F35898470135F8E746
:1081E00008F09AFA084B00251E00084CE41AA41067
:1081F000A54204D0AB00F35898470135F8E770BDAD
:108200006C2000206C2000206C20002070200020BA
:1082100003008218934202D019700133FAE77047C5
:10822000FEE7C046F0B54E4657464546E0B4214B02
:108230001978994600292AD01F4B002598461F4BD4
:108240001F4F01269A4603E00135EDB28D421ED242
:1082500043461B6832009C46EC00644420783B682F
:1082600082401342F0D093433B6001F03FF933006A
:1082700022785146934009680B40010091408B429F
:108280000AD04B4601351978EDB28D42E0D31CBCC3
:1082900090469946A246F0BD6368002BF1D0617804
:1082A00001394C424C41211A4C424C411000E1B280
:1082B0009847E6E79820002094200020BC2000206A
:1082C000C0200020F8B5124D0700280000F01AFE6B
:1082D000002807D10124BC400E4E3368234202D04F
:1082E000A3433360F8BD380001F000F90A4A13686F
:1082F00000280BD023431360336800221C43074B34
:1083000028001968346000F087FDEBE7A343F2E72B
:108310009C200020C0200020BC20002090200020B5
:10832000F0B54F464646C0B41400070083B00E00B7
:108330000720042A04D803B00CBC90469946F0BD2F
:1083400000F0C8FF00282FD01A4B1B4A1F601B4BA0
:10835000751E1E701A4BEDB21C6000231360194A83
:108360001360002E1AD0184B01AC99460323002647
:10837000984600E01D004246EB00FB182270A670F4
:10838000E6709A781878627021004A4600F0ACFFD7
:108390000028D0D16B1EDBB2002DEBD10B4A00219F
:1083A0000B4800F01FFDC6E700F060FF0028CBD0AF
:1083B000C1E7C04694200020BC2000209820002067
:1083C00090200020C0200020C582010025820100ED
:1083D0003807020070B5094D2B78002B0BD0002414
:1083E000074E3268E300985C012101F02BF82B78EE
:1083F0000134A342F5D8002070BDC046982000206B
:1084000094200020BFF34F8F024A034BDA60BFF382
:108410004F8FFEE70400FA0500ED00E010B50029DB
:108420000DD00923002A01D1180010BD541E22408E
:10843000FAD1826001608480C2600023F4E70E23D9
:10844000F2E7C046030010B59C888068DA68121A0B
:108450000420944200D210BDDA68002014401A684B
:108460001155DA680132DA60F5E7C04610B5846864
:10847000C26803000520944200D110BD98689A8814
:1084800002401868825C00200A709A6801329A6083
:10849000F3E7C04636DF704737DF7047032330B558
:1084A000134005000720002B00D030BD08484C1CAD
:1084B000E4000260A4B2074812190260064A0020D4
:1084C0001370064A1370064B1D80064B1980ECE7AB
:1084D000C4200020C8200020CF200020CE20002073
:1084E000CC200020D0200020F0B557464E4645460F
:1084F000E0B4514D06002B8882B00C001700092013
:108500008B4205D202B01CBC90469946A246F0BDF3
:1085100000236A46D3710422484B90465B68DB0512
:10852000DB0D49D16B46D81DFFF7B4FF022859D0A7
:10853000002859D1424B434A19784348CBB2002115
:10854000994613780088DBB28C46834202D201330D
:10855000DBB29C46E1451CD0137800219946137884
:10856000DBB2834201D20133D9B243461170012BF1
:1085700014D14B46DB009846344B9A461B68434463
:108580001F60002E01D0002C38D1002200209A80DC
:10859000B8E74346012B4DD02D4B994662B66B464A
:1085A000D879FFF779FF022302009A4321D1284BA3
:1085B00004209945A6D0DCE7103B5AB2002A2EDBF6
:1085C0009208C03223499200525803210B40DB002D
:1085D000DA4093090B40DAB29046012BA2D1012375
:1085E0009846A7E772B6A5E700220021FFF70AFF29
:1085F000A0E700220021FFF705FFD8E74B462888B7
:10860000220043431800144B31001B68181807F070
:1086100024F953461B68002043449C8072E70F22D4
:108620000E49DBB28C461A40083A92089200624426
:108630005268CAE7042065E7CC20002000ED00E086
:10864000CE200020CF200020D0200020C4200020F9
:10865000FFFF000000E100E0C820002018ED00E06E
:10866000F8B54F464646C0B4164C174D23782A78C5
:108670009A4222D0154B164F9946164B164E9846E5
:108680004A46207823781188DBB2C0B20022994292
:1086900001D90133DAB2227042461268C30094460F
:1086A0003288634450433A68998894461B68604412
:1086B000984722782B789A42E2D10CBC9046994692
:1086C000F8BDC046CE200020CF200020D0200020C2
:1086D000C8200020C4200020CC200020802180233E
:1086E000184A8902D1508022D221174B52028900A8
:1086F0005A5040395A5001222F205A600138C04642
:10870000C046C046C046C046C046C046C046C04639
:10871000C046C046C046F1D19A6000230B4A2F20C4
:1087200013600138C046C046C046C046C046C04679
:10873000C046C046C046C046C046C046F1D1044A05
:108740001370704700E100E000100140D4200020C9
:10875000F4200020A021F0B5002347462C4A490010
:1087600080B45350043153500431535004315350AA
:108770004C39535004315350264B1B68002B37D0D3
:108780002549002652582549254F0C68141B002204
:108790002402240A904602E0002D1AD02B001A6809
:1087A000A24216D8A41AB6181A7CDD69002AF3D0A2
:1087B000424699691A745A693B68002B1BD0100015
:1087C00098470028E8D000220021FFF71BFE002D6B
:1087D000E4D1144B14491A780B789A420ED0134AFC
:1087E0009B009E5080218023114A49035B00D15099
:1087F00004BC9046F0BD08009047CDE70132D3B2EB
:10880000022B01D00B70EAE700230B70E7E7C046AC
:1088100000100140D820002004050000D4200020D2
:10882000DC200020E8200020E9200020EC200020AF
:1088300000E100E0F0B55F4656464D464446F0B4D0
:10884000C54BC64A1B68C6498BB005930978137897
:10885000994200D157E10133DBB2022B00D1002352
:108860001370C04A9B009B58BB4A9A46059B5344D1
:108870001B021B0A136001230193BB4B00241B68DE
:108880009B46BA4B5A461B78914619000393B84B46
:1088900088461B6847460493AF4B013F1B6807930C
:1088A000B44B1B78099300239C4606930893FBB2B4
:1088B00066469846FF2B32D04346D800049B9C4620
:1088C000130060440178457800961A00A9421FD031
:1088D00046684A00B446521886780131D200C9B2BF
:1088E00062448E4200D1EDE01678022E00D1C7E03E
:1088F000032EEAD1002BE8D01C74DB69002BFBD1DE
:10890000013345780093002399461A00A942DFD12C
:108910004746013FFBB2009E9846FF2BCCD1089BF7
:10892000C8460292B446002B00D0F0E0069B002B14
:1089300002D0894B079A1A606346002B02D0424648
:10894000894B1A60019B002B00D02DE15B46029AF7
:1089500000259B1A5A1E9341DBB205937E4B0027DC
:108960001B6802999C46804B1B689B46814B1B7879
:10897000069300230193804B994601230093039BA8
:10898000013BDBB20393FF2B00D1F9E0049ADB003B
:1089900092460E009A44002D28D06A68A9682C00DF
:1089A000ED696346D31A1B021B0A4B4552D86A462F
:1089B00012785B1823606760A7602274E761002E5D
:1089C00058D031683000994205D3B9E01168994216
:1089D00000D3A3E01000C2695B1A002AF6D1E2615D
:1089E00032002360C4611600002DD6D153461A7898
:1089F0005B7831009342C2D05146496853008846A3
:108A000051469B180132D2B20A708978DB00434488
:108A1000914200D19DE0197832000129E3D15C68D0
:108A2000227C9046414632000029DCD19A6862607F
:108A3000D968A1601869E0605B69A361069B002B9F
:108A4000AFD04346002263606346D31A1B021B0A61
:108A50004B45ACD963469A1A1202120A8A4264D272
:108A60008B1A6A46127823606760A7602274E761F8
:108A7000002EA6D122000123A34601931600B3E7DE
:108A80005668002B30D09E421ED0009A1F0094469C
:108A900002E0964206D01700FA69002AF9D1624630
:108AA000009212E765460095BA420FD01568D26968
:108AB000FA61002A16D013689C4665441560457813
:108AC0004B4602E700210FE71A001F00DE69002E67
:108AD0000CD0012500951568D269B1463300FA61C2
:108AE000002AE8D14578F0E60023EEE60125234B85
:108AF0009D60009506950025002307950135994650
:108B000008950995D2E700239A460193B5E66A468F
:108B100024215218174B12781A7007E7C91A1160EE
:108B2000E26123603200C4615DE76B461B78276019
:108B30006760A7602374E761002E9BD00023316833
:108B4000CB1A336022000123E661A346019316008D
:108B50004AE7524615705EE7D4200020E820002046
:108B6000E9200020EC200020D8200020E020002078
:108B7000E4200020EA200020FEFF7F0000100140DA
:108B8000019B002B00D09DE0029B994236D1059BB2
:108B9000002B33D10023534A13700BB03CBC9046DA
:108BA0009946A246AB46F0BD4F4B002418680025FD
:108BB000029B00210026574615E01A68BA4200D9E8
:108BC00084E0D868BF1A89181E60DC69002807D0C5
:108BD000DD611D00059A986052181202120A5A604F
:108BE00023002000019C002BE7D1002C01D03E4B3C
:108BF00018600023029301330593AFE6002900D1EA
:108C00005DE00B6839489846394B3A4DC4583A4BA9
:108C10002E781B68E11A0902090A0331002E2DD0B3
:108C200042468A4200D20A00A820D21812022F49D6
:108C3000130AC0002E4D0B504A591B1B121B120267
:108C4000120A1B0203321B0A9A42A3D94B590B503A
:108C50002F200138C046C046C046C046C046C04668
:108C6000C046C046C046C046C046C046F1D180217D
:108C70008023224A89025B00D1508BE78026D127CE
:108C80007602BF00C651403FC651C02280271B4E0E
:108C9000BF025200B7503760012606602F2001380E
:108CA000C046C046C046C046C046C046C046C04694
:108CB000C046C046C046C046F1D12E70B0E7FFF7AF
:108CC0000DFD67E75A46084B1A605DE7BA46002C6F
:108CD00001D0054908605146521A1A6002930123D7
:108CE00005933BE6EA200020D82000200010014038
:108CF00004050000F4200020D420002000E100E062
:108D0000F8B54F464646C0B40326350080460F00EE
:108D10001400994615400720002D03D00CBC904646
:108D20009946F8BD002A44D0FFF7D8FC4A46224BAA
:108D300080201A602200214B18321E70204B626086
:108D40001C607B00DB19DB00D218E260D318C02264
:108D5000636125706570A77025726572A7722574AE
:108D60006574A774C524FF21164B40031D60164B84
:108D700052001D70154BA4001D70154B98501A59C8
:108D80008A433F390A431A51A122186040461149CB
:108D9000D2008850C42080001C580F4A2240C024B2
:108DA000240222431A500D4B0020CA580C4B1A6063
:108DB000B4E7034B1A60B1E7DC200020E02000207C
:108DC000E4200020D8200020E8200020E920002016
:108DD00000E100E000100140FF00FFFF040500007B
:108DE000D420002010B50B4B1B68002B0BD0002AA1
:108DF00007D0002805D0036808201C7C002C04D074
:108E000010BD0720FCE70820FAE759745A610020DA
:108E1000F6E7C046E4200020F0B5344B1C68002C77
:108E200006D0002804D00723042903D81800F0BD79
:108E30000823FBE74369002BFAD0437C012B44D085
:108E400000262B4B10255B68DB05DB0D25D1641953
:108E50006378A5785F1CFFB2BD423AD02578BD4249
:108E600035D05D00ED186368ED009C466544042331
:108E7000002DDBD0033B2B7068601E4B1E48C3588F
:108E8000E960AB60802180236A611C4A5B00490372
:108E90002E616770D1500023C8E7103B5DB2002DF2
:108EA00019DBAD08C035154FAD00ED5903273B4028
:108EB000DB00DD40AB093B40DBB20025012BC6D017
:108EC0000835032BC3D00835C1E70E00B9E70423EA
:108ED000ACE70027C2E70F25094FDBB2BC461D40B7
:108EE000083DAD08AD0065446D68DFE7E420002073
:108EF00000ED00E0040500000010014000E100E08A
:108F000018ED00E010B52C4A030011680820002974
:108F10002AD0002B28D05A69002A25D000221A74A2
:108F2000264A08305268D205D20D1ED109184A7857
:108F30008878541CE4B2A04231D00878A0422CD0EA
:108F4000500082184868D200844662440420002AF7
:108F50000AD00238107053604C70802380210020AA
:108F6000174A49035B00D15010BD103A50B2002897
:108F700017DB8008C030124C8000005903242240C7
:108F8000D200D04082092240D2B20020012ACDD0A6
:108F90000830032ACAD00830C8E70420E4E70024D8
:108FA000CBE70F20074CD2B2A44610400838800807
:108FB000800060444068E1E7E420002000ED00E02C
:108FC00000E100E018ED00E010B50400082904D02D
:108FD000002200210020FFF715FA606823689847F7
:108FE00010BDC04600B583B000900191034A08212E
:108FF0006846FFF779FA03B000BDC046C98F01008B
:1090000070B516000C008D18002A05DD207801349B
:1090100000F0DAF8AC42F9D1300070BD10B50C00A8
:10902000200000F0B7F80528FAD0012010BDC04696
:1090300030B5047885B0012C19D0022C34D0002C26
:1090400001D005B030BD254D254C29002000FFF78B
:109050000DFA002823D0A268E3689A42F1D10323D5
:1090600002AA13701F4B10001B689847E9E743687A
:109070001D4D19782800FFF7E5F900281ED1AA68D0
:10908000EB689B1A012B21D0AA68EB689B1AAA886F
:109090009342D6D80121154800F0E8FCD1E7012120
:1090A000280000F089FCD6E702AB1C70C36802A858
:1090B000019303930B4B1B689847C2E702AB1C70EC
:1090C000084B03901B6802A89847DDE702AB1870B5
:1090D000044B02A81B689847D6E7C046F82000203A
:1090E00004210020FC200020142100200021002069
:1090F000F0B51E00214B050089B00C001A60072056
:10910000002906D08A881E480968FFF787F90028D9
:1091100001D009B0F0BDA289A1681A48FFF77EF915
:109120000028F6D16A46184B684692CB92C292CB81
:1091300092C212CB12C2AB6806932B7906775A1EE5
:10914000934103756B790E22591E8B415B421A4085
:109150004275EB780293AB7803932B7801936B788D
:1091600000930A4900F0A0FB0028D2D100F0F6FCE1
:109170000121074800F07AFCCBE7C046FC20002024
:1091800014210020042100203C070200319001003E
:109190000021002070B50A4C0500A168A288E36890
:1091A0005B1A9A4204D029002000FFF75FF970BDD6
:1091B0000121044800F05AFC0028F4D00520F6E70D
:1091C000142100200021002010B5040006480121D0
:1091D000047000F0F1FB112800D010BD21000348FD
:1091E000FFF730F9F9E7C0462421002004210020D0
:1091F000F0B500281EDBFF261A4B37009C460323E0
:109200008208C025C0B20340DB0089019F40314085
:10921000994092006244AD005459BC4321435151DE
:109220001F23C02118401E3B83400E4A4900535063
:109230001360F0BDFF250C4A2E00944603220F2335
:10924000C0B20240D20089019640294091400340BB
:10925000083B9B089B006344DC69B4432143D9610C
:10926000DEE7C04600E100E000ED00E070B5442517
:10927000164C0820635D002B00D070BD4022FF21FA
:10928000013BA3540132A1540132A35423620132A1
:109290006362A362E36223636363A363E363FC39F2
:1092A0000238A35423606360A360E36023616361B9
:1092B000A361E361FFF79CFF8021C123044A9B0067
:1092C0000906D150012300206355D6E7282100204C
:1092D000006000404423034AD05C431E9841C0B262
:1092E0007047C04628210020F0B5474680B4524C54
:1092F0000825231820331E787F2E03D8280004BCAD
:109300009046F0BDCD78AC46002D36D025680135AD
:1093100000D186E0042300269846731C9D006759FF
:10932000013733D0B31C984525D99D0067590137C3
:109330002CD0F31C98451ED99D006759013725D0C4
:10934000331D984517D99D00675901371ED0731DED
:10935000984510D99D006759013717D0B31D98451E
:1093600009D99D006759013710D00736B04502D999
:10937000E369013308D00425C0E72569013555D0DC
:10938000082304269846C8E707231C256251624635
:1093900027185EB220373E70002A02D1E3183C3312
:1093A00018708B78002B14D10300A0254A78C133A4
:1093B000FF3392009B00ED055A51CB78002B14D15E
:1093C000A4193C340B7822789B01134323700025A9
:1093D00094E7A022D2059446E02502278300634447
:1093E000ED005A59BA435A51E7E7144A0B789446AC
:1093F000A221B6006644C9007458114A00022240F6
:109400007250F822520110400500C02218040300D7
:1094100028009202745813401843204370500025CE
:109420006CE7002522601D700026BAE70425226142
:109430001D702E002B00B1E72821002000600040A5
:10944000FFE0FCFF0023F0B5254C22182032D35654
:10945000032B18DDE3183C331B789B09032B33D017
:10946000012B3AD0C0218902A023DB059C46E023D2
:1094700080006044DB00C4581A4A2240C250C258DF
:109480000A43C250F0BDD8B20328FBD8164DA2271C
:10949000AC46012698006044FF00C5593543C551CC
:1094A0001800654600274030800080B247510029EF
:1094B000E8D0127852B292001259002AE2D09E40AF
:1094C000C1239B00EE50DDE7A223A022DB00D205E2
:1094D000D258012383401A42C4D180218902C3E7B4
:1094E00028210020FFFFFCFF00600040A222A021F5
:1094F0000300D200C9058858D8400123184070479E
:10950000F0B557464E464546E0B4D24A00241368AB
:10951000012B00D1BDE0D04B1A68012A00D1C6E072
:10952000CE4B1A68012A00D1D1E0CD4B1A68012A2E
:1095300000D1DCE0CB4B00251A68012A00D1E7E01E
:1095400023070BD0E30700D5F8E0A30700D504E11B
:10955000630700D50FE1230700D5E3E0002C04DB0F
:109560001CBC90469946A246F0BD4023BE4CE15635
:109570004B1C1ED0C9B2C0230800984323182033C7
:109580001B785BB29B001E59002E12D0A02301272E
:10959000DB059C46E023874082006244DB00D35811
:1095A00089099B039B0F3D4200D10CE1022B00D1A6
:1095B00070E14123E1564B1C1ED0C9B2C023080004
:1095C0009843231820331B785BB29B001E59002E52
:1095D00012D0A0230127DB059C46E02387408200B0
:1095E0006244DB00D35889099B039B0F3D4200D1A5
:1095F000D1E0022B00D141E14223E1564B1C1ED0A9
:10960000C9B2C02308009843231820331B785BB2EB
:109610009B001E59002E12D0A0230127DB059C467B
:10962000E023874082006244DB00D35889099B0312
:109630009B0F3D4200D1F5E0022B00D124E14323F2
:10964000E1564B1C00D18BE7C9B2C02308009843F8
:10965000231820331B785BB29B001E59002E00D1CB
:109660007EE7A0230124DB059C46E02384408200A2
:109670006244DB00D35889099B039B0F254200D12C
:10968000BDE0022B00D06BE7032900D108E1B04711
:1096900066E7C1217548890041580B4200D13AE77D
:1096A0006D4B14601A680134012A00D038E7C122DA
:1096B0006E499200895802220A4200D130E7002107
:1096C0001960664B14431A68012A00D02DE7C122A5
:1096D00066499200895804220A4200D125E70021F8
:1096E00019605F4B14431A68012A00D022E7C12297
:1096F0005E499200895808220A4200D11AE70021E7
:109700001960584B14431A680025012A00D017E746
:109710001D6080231B061C43A022A223D205DB0070
:10972000D5580DE7514A524BD058D1584E4B89036A
:10973000C004890FC00EDB6898470FE7A2234B4A8D
:10974000DB00D058D158484B8903C0041B68890FEF
:10975000C00E9847A30700D4FAE6464B434AD058B8
:10976000D158414B8903C0045B68890FC00E9847EC
:10977000630700D4EFE6A3233C4ADB00D058D1585E
:10978000394B8903C0049B68890FC00E9847230793
:1097900000D4E3E6C6E7032B00D02DE7032910D160
:1097A00080239B029C46E023DB009946324FD3582E
:1097B0001F404B46D750D75863463B431F004B468C
:1097C000D750B04718E7032B00D0F2E6032914D195
:1097D00080239B029A46E023DB00D7589946B8467F
:1097E000254FBC46474663461F403B004F46D3517A
:1097F000D35957461F434B46D750B047D9E6032BA2
:1098000000D0ADE6032900D041E78027BF02E02366
:10981000DB00D458184D2540D550D4583C43D45083
:10982000B0479DE6032B00D009E7032910D1802320
:109830009B029C46E023DB0099460F4FD3581F4004
:109840004B46D750D75863463B431F004B46D75033
:10985000B047F4E600610040046100400861004048
:109860000C6100407C610040282100200060004025
:109870001C05000014050000FFFFFCFF0329A0D118
:10988000C0239B029C468EE70329E1D1C0239B02A3
:109890009C46CFE70329B0D1C0239B029A469AE7A2
:1098A000C027BF02B3E7C046F0B557464E4645460F
:1098B000E0B4394C0300A27D0820002A04D01CBC6F
:1098C00090469946A246F0BD002B62D01A68A020AF
:1098D0000325C132FF32C005920015500122AA466D
:1098E0001D68AA40A125ED004251A94600255A68ED
:1098F000AC46C132FF32920015509E69274A284D6E
:1099000056515D7DA84646461D7D3543254E9551F1
:109910005D681E68A846244D56514646234D565153
:109920001D7D012D1AD19E683700E0267600B046D5
:109930004744BE0067463750C137FF37B8465746E1
:10994000DE684644B6003750DE68B5404E46855165
:10995000D8689D689051A220C00015501A696160B6
:109960002260002908D0197FC12311480B4A9B00AF
:10997000D0500220FFF73CFCA0230421074ADB0063
:10998000D15000230122E374A374A27563750020F3
:1099900095E70922074B9AE770210020002000403C
:1099A000240500006C0500000C05000014050000F3
:1099B000800002005C070200F0B5264A0400937C98
:1099C0001120002B00D0F0BD0125917422482349BD
:1099D000138294600B6005600B60138AE05C138A4D
:1099E0001F4C01339BB213821E4BE050506800287D
:1099F00001D00020E7E7002726001D000130FF30DE
:109A0000947C138A9C4203D812E0138A834202D0CA
:109A10000B68002BF9D0138A8342F2D00F60138AAF
:109A20009468E45C138A01339BB213827451E7E7B4
:109A30008023118A5B0099420AD008490B68002BE9
:109A4000FCD001210020084B196000239374BAE771
:109A50000F20FAE770210020082000401C21004060
:109A6000002000401C0500000C200040F0B54746D7
:109A700080B4344B1122DC7C002C03D0100004BCD9
:109A80009046F0BD5A7DD974D8601C75002A0AD062
:109A90005A68002A0FD08121C1232B4A89009B00DC
:109AA000D1500022EAE729490A6029490A600121C8
:109AB000254A1160ECE7244A244E9446A322D200A2
:109AC0009046234C234D316820682A6800280BD12A
:109AD000002A28D10029F6D000221E490A601B491D
:109AE0000A60DA740332C9E70029F5D1002A1CD1D3
:109AF000474660462260197DC059DF687854197D59
:109B0000D87C0131C9B21975197D8842DBD8114959
:109B10000A600E490A60DA745B7D002B0DD00121CA
:109B2000094B1960AAE70029D6D1002209490A6029
:109B300006490A60DA740F32A0E70121064B19606A
:109B40009CE7C046702100200020004024210040F6
:109B5000082100404421004004200040064A537D73
:109B6000002B07D105490B6005490B6005490133FE
:109B70000B6053757047C0467021002024210040BF
:109B80000821004000200040C12210B5514B920036
:109B90009A5884B092054CD54F4A1168002948D094
:109BA000002111608121C2228900920099504B4B03
:109BB0005A7D002A02D10121494A116002226946D8
:109BC0000A7090214348C9004258425069460392A6
:109BD000DA7C68460A72DA68196801920022DA743F
:109BE0005B6898473F4A1368002B10D03B4B188A9C
:109BF000997C814251D9002111601A8A9968895C47
:109C00001A8A013292B21A82374B324AD150374BFC
:109C10001A68002A0BD000221A60304B5A7D002AA5
:109C200002D001212B4A1160DA7C002A44D104B011
:109C300010BDC123274A9B00D3585B07D2D52C4BBC
:109C400019680029CED00021A3241960234BE40019
:109C5000187DD96812590A541A7DD87C0132D2B2C3
:109C60001A751A7D9042BDD15A7D002A02D1012079
:109C70001B4A10608124C2221648A400920084501E
:109C80006C461A7D01202272002220700191DA7444
:109C9000196868465B689847A4E7002010600029AF
:109CA000B5D06A46107011729A689874196801925A
:109CB0005B6868469847AAE768461A7D01210272E8
:109CC000DA680170019200221968DA745B689847BB
:109CD000ADE7C04600200040242100407021002054
:109CE000042000401C2100401C05000044210040CD
:109CF0000821004029DF704728DF7047F0B556463D
:109D000044465F464D46F0B4534E85B03478012C3E
:109D100066D0002C4CD0022C15D0032C0CD14F4B0C
:109D20001868FFF7E9FF002806D0112860D1082342
:109D30004B4A11680B43136005B03CBC90469946F2
:109D4000A246AB46F0BD464B9A461B680393454B73
:109D500099461B789D00ED188023AD005B051969BD
:109D60004D442F690904090C38009B4605F0F0FBAF
:109D70003A4B804618605B461969E888013F090440
:109D8000C019090C05F0E4FB80452CD00323039C8B
:109D90009C4353461C60344B1B68002B02D102339A
:109DA000234241D00022314B1A7000F0F3FAC3E78E
:109DB0002F4B1C602F4B1C602A4B5A78002ABBD0BB
:109DC0001A7891008A1892009B18D9882A4A1B7920
:109DD0001160032B25D0042B23D0012BACD1337081
:109DE00000F07AFCA8E70123039A9A431443D0E7D2
:109DF0001C4D2B789C00E3189C002A191400536911
:109E00001179D2680C345500AA181B4D92002D68A8
:109E100000951A4D555902002000A84704233370BD
:109E20008AE700F02DF887E7104A40461370FFF7E5
:109E300063FF002800D17FE7112804D108231C43C9
:109E400053461C6078E74B461B789C00E4184B4651
:109E5000A4001A19D2E7C046622200205422002032
:109E6000702200208821002064220020632200202C
:109E7000742200205C2200206C2200207822002026
:109E8000F0B55F4656464D464446F0B45B4B5C48E1
:109E90001A78802691008A1892009B18DF681D6945
:109EA0007A00D2199200821814895089526860434E
:109EB00080469044DA881B8914009946514B92469B
:109EC0009B4600235A467605316983B009044C4409
:109ED0001360090C2800641905F0C0FB00295CD14F
:109EE00033699BB29A4542D0A04500D174E0032F5C
:109EF0003DD02800316948440904090C05F0AEFB47
:109F0000414B8908196031690904090C200005F0EA
:109F1000A5FB002925D080256D0529692B696A4696
:109F200099464346D380D08889B205F011FB6A4632
:109F30004B46A6B2D3800700D188300005F008FB5D
:109F4000BFB280B287423DD02C692969300089B206
:109F500005F084FB5B462404240C89B2641AA4082F
:109F60001C600222294B1A70FFF7C8FE0EE0802306
:109F70005B05196928000904090C05F0E9FA0322B8
:109F8000234B1860214B1A70FFF7B8FE03B03CBC9E
:109F900090469946A246AB46F0BD032FE7D0280075
:109FA000316948440904090C05F058FB164B89082F
:109FB00019603169A045A7D10222144B1A70FFF72E
:109FC0009DFEE3E7434624041B041B0C240C1C1BCE
:109FD0005B46A4081C60C4E74B46002BC7D0032F88
:109FE000C5D02800316948440904090C05F036FB46
:109FF000054B890819603369B3E7C0468821002002
:10A0000078220020582200206422002062220020B2
:10A0100054220020082170B50C00244A82B0136835
:10A020001C4009D08B431360214B224A1B789B00B4
:10A030009B58984702B070BD1F4D2B789800C318ED
:10A0400098002A18117904292AD010005369D2687F
:10A050000C305600B218194E920036680096184E11
:10A0600096590022B04702212A7893009B189B0042
:10A07000EB181C71DC80D9601C615C611C816B7801
:10A080000132013BD2B26B700A2A06D02A7000223C
:10A090000C4B1A70FFF732FECCE700232B70F6E76B
:10A0A0000122084B1A70FFF729FEC3E77022002037
:10A0B000632200207C070200882100206C220020FF
:10A0C0007822002062220020802230B55205234BE6
:10A0D00014691B682404013B240C5C43204B83B0AF
:10A0E0005869431C37D011690904090C05F030FA8E
:10A0F00080235B0519691B4B09040138090C414396
:10A100001A682000FFF7F6FD002806D0112806D1B6
:10A110000823154A11680B43136003B030BD134D7B
:10A120002B789C00E3189C002A19140053691179BC
:10A13000D2680C345500AA180D4D92002D68009578
:10A140000C4D555902002000A84704220A4B1A70F2
:10A15000FFF7D4FDE1E75069CAE7C046542200206A
:10A1600000100010642200207022002088210020AE
:10A170006C220020782200206222002030B5244B7F
:10A1800083B05869431C3FD080235B0519690904DB
:10A19000090C05F0DDF98022520513691D4C116987
:10A1A0001269090424681B0492B2090C01381B0CC3
:10A1B000920861435843FFF79DFD002806D01128FF
:10A1C00006D10823144A11680B43136003B030BD55
:10A1D000124D2B789C00E3189C002A191400536937
:10A1E0001179D2680C345500AA180D4D92002D68D3
:10A1F00000950C4D555902002000A84704220A4B37
:10A200001A70FFF77BFDE1E780235B055869C2E721
:10A21000001000105422002070220020882100200D
:10A220006C2200207822002062220020F0B58027D6
:10A23000284C7F05237839699A00D3189B00E318CE
:10A240001A89DD881B69AD18ED18090483B0090C63
:10A25000280005F003FA204B0E005869431C37D044
:10A2600039690904090C05F073F980235B051B6942
:10A27000411E1B041B0C5943184A891912682800F7
:10A28000FFF738FD002806D0112806D10823144A0C
:10A2900011680B43136003B0F0BD2578AB005D1966
:10A2A000AD006219140053691179D2680C3455005D
:10A2B000AA180C4D92002D6800950B4D55590200BF
:10A2C0002000A8470422094B1A70FFF717FDE2E7A8
:10A2D0007869CAE788210020001000105822002069
:10A2E000702200206C2200207822002062220020B0
:10A2F000082330B51F4D83B02C68234214D1A30727
:10A3000002D501231C432C6002221B4B1A701B4BED
:10A310001868FFF7F1FC002804D011280DD108239C
:10A320001C432C6003B030BD9C43134B144A1B7874
:10A330002C609B009B589847F4E7124D2B789C00AB
:10A34000E3189C002A19140053691179D2680C345F
:10A350005500AA180C4D92002D6800950B4D5559CB
:10A3600002002000A8470422094B1A70FFF7C6FC20
:10A37000D8E7C0467022002063220020542200202B
:10A380007C070200882100206C2200207822002017
:10A390006222002030B5224B83B05869431C3BD069
:10A3A00080235B0519690904090C05F0D1F88022A6
:10A3B0005205136911691B041B0C01380904584329
:10A3C000090C05F0C5F8FFF797FC002806D0112806
:10A3D00006D10823134A11680B43136003B030BD44
:10A3E000114D2B789C00E3189C002A191400536926
:10A3F0001179D2680C345500AA180C4D92002D68C2
:10A4000000950B4D555902002000A8470422094B26
:10A410001A70FFF773FCE1E780235B055869C6E714
:10A420000010001070220020882100206C220020E3
:10A430007822002062220020082370B52B4D82B0C4
:10A440002C68234209D09C43294B2A4A1B782C6054
:10A450009B009B58984702B070BD0122244B1A7094
:10A46000254B5869431C3CD080235B0519690904BE
:10A47000090C05F06DF88022520513691F4E116911
:10A480001269090436681B0492B2090C01381B0CCE
:10A49000920871435843FFF72DFC0028DBD01128A8
:10A4A00003D108231C432C60D5E7154D2B789C0065
:10A4B000E3189C002A19140053691179D2680C34EE
:10A4C0005500AA180F4D92002D6800950E4D555954
:10A4D00002002000A84704220C4B1A70FFF70EFC64
:10A4E000B9E780235B055869C5E7C04670220020A4
:10A4F000632200207C07020000100010542200207C
:10A50000882100206C220020782200206222002076
:10A51000F0B54D4644465F465646F0B4644B85B0B0
:10A520001D68984608231A002A40914600D076E01C
:10A53000604F3C78A30003931B199B00FB181A691A
:10A54000561EDA881B89B618F61880235B05196930
:10A55000594B1B689A46002B44D1584B1B689B46AD
:10A5600080235B05196930000904090C04F0F0FF31
:10A57000834566D353465CD0002B5CD1039B9C463D
:10A580006444A4003A19117904296CD0100053696D
:10A59000D2680C305400A218494C920024680094F0
:10A5A000484C14590022A04751463A7893009B1812
:10A5B0009B00FB1819715146D9800221D960514680
:10A5C00019615961514619817B780132013BD2B240
:10A5D0007B700A2A4DD03A7000223B4B1A70FFF76D
:10A5E0008DFB15E0354B09041B68090C30009B46B8
:10A5F00004F0AEFF5845B3D14A46344B1A600123EC
:10A600001D4343464A461D60314B1A70FFF7C2FE98
:10A6100005B03CBC90469946A246AB46F0BD9D4372
:10A6200043461D602A4B2B4A1B789B009B5898473A
:10A63000EEE7002B05D00322254B1A70FFF7F6FD3D
:10A64000E6E70022214B58461A60214B02321A706D
:10A65000FFF752FB0028DBD011280DD108231D4342
:10A6600043461D60D4E70122174B1A70FFF746FBE3
:10A67000CEE700233B70AFE73B789A00D2189200F8
:10A68000BC182700E268636921795400A2180C4CB9
:10A690000C372468920000940A4C145902003800C8
:10A6A000A0470422084B1A70FFF728FBB0E7C0460A
:10A6B00070220020882100205822002054220020EF
:10A6C0006C220020782200206222002064220020D8
:10A6D000632200207C070200F0B54F464646C0B416
:10A6E0008027444E7F0534783969A5002B199B00DB
:10A6F000F318DA8889B283B08A421AD8188959695E
:10A700001B699208C018FFF7F5FA002806D0112837
:10A710002FD10823384A11680B4313602C19A40069
:10A720003419E288354B1A6003B00CBC9046994648
:10A73000F0BD3D6959692D042D0C551B18893A69E6
:10A740001B6992B2C018920849194019FFF7D2FA52
:10A75000002806D011282BD10823274A11680B4363
:10A76000136080235B051B69244A1B041B0C1360C8
:10A77000DAE73778BB00DF19BF00F21953691179A6
:10A780001700D268994653009C461D4B62441B68D3
:10A79000920000931B4B0C37D358020098463800A8
:10A7A0004B46C0470422184B1A70FFF7A7FAB5E7CB
:10A7B0003478A3001C19A4003219140053691179CC
:10A7C000D2680C345500AA180D4D92002D680095E2
:10A7D0000C4D555902002000A84704220A4B1A705C
:10A7E000FFF78CFA80235B051B69044A1B041B0CD2
:10A7F000136099E788210020702200205C2200204D
:10A800006C2200207822002062220020F0B546460B
:10A810004F460823C0B4704E83B0346823426DD1D4
:10A820006E4B1A68571C1F606D4B1D68002D28D198
:10A830006C4B1D7899468023A80045195B05196962
:10A84000AB0098464D4645442B690904581EEB88D9
:10A85000090CC0182B89C01804F07AFE874265D312
:10A86000614B60D01F68002F00D17BE001231A00EC
:10A87000224050D11C435D4B34601A70FFF78AFDB3
:10A8800044E00421594B197080235B051F693F0484
:10A890003F0C5743564A5069421C42D0196909047B
:10A8A000090C04F055FE80235B0519690138090481
:10A8B000090C41432A003800FFF71CFA002825D074
:10A8C00011284BD0474D2B789C00E3189C002A1987
:10A8D000140053691179D2680C345500AA18454DFB
:10A8E00092002D680095444D555902002000A8475C
:10A8F0000422424B1A70FFF701FA07E09C433B4BDE
:10A900003F4A1B7834609B009B58984703B00CBCAF
:10A9100090469946F0BD0322344B1A70FFF786FC2F
:10A92000F4E75869BFE71B68002B9FD102222F4B29
:10A9300038001A70FFF7E0F90028E7D011280DD091
:10A940004B461B789A00D2184B4692009D182A005D
:10A950000C3214006B692979EA68BEE708231C43AE
:10A960003460D3E7297904292CD042464A440C327A
:10A970001000EA686B695400A2181E4C920024680B
:10A9800000941D4C14590022A0474B4602211A780E
:10A9900093009B189B004B44D9601F71DF801F619F
:10A9A0005F611F814B4649465B780132013BD2B261
:10A9B0004B700A2A0CD00A700022104B1A70FFF755
:10A9C0009DF9A3E701220D4B1A70FFF797F99DE758
:10A9D00000230B70F0E7C0467022002054220020B4
:10A9E00064220020882100205822002063220020B9
:10A9F000001000106C22002078220020622200202B
:10AA00007C07020030B5154B83B01868FFF774F966
:10AA1000002806D0112806D10823114A11680B43DB
:10AA2000136003B030BD0F4D2B789C00E3189C00E1
:10AA30002A19140053691179D2680C345500AA18E8
:10AA4000094D92002D680095084D555902002000CF
:10AA5000A8470422064B1A70E3E7C04654220020A0
:10AA600070220020882100206C2200207822002003
:10AA700062220020F0B557464E464546E0B498465F
:10AA800008AB1B8894469A461C4B04245F781E0032
:10AA90000A2F2DD01B78FC18092C00DD0A3C14224B
:10AAA0005443341920716046606120000C30914697
:10AAB00024C924C041465246E18022810024104A24
:10AAC000013711787770A14212D14D465D43731959
:10AAD000D8880C491B790860032B07D0042B05D0BC
:10AAE000012B05D11370FFF7F7FD01E0FFF7C8F95F
:10AAF00020001CBC90469946A246F0BD882100204B
:10AB0000622200206C220020F0B546464F46C0B4B9
:10AB1000764C0425237883B01A000600AA4312D08D
:10AB2000022815D003280ED1082071490A68104266
:10AB30005DD0022B54D0032B01D0012B03D18243D3
:10AB40000A60FFF7DBF803B00CBC90469946F0BDF5
:10AB5000022B45D0032B59D0012BF4D10821644A94
:10AB60001368194200D095E0624D2B789800C31805
:10AB70009800614B2A181F68D388DF1BBFB2D780AB
:10AB8000002F00D08BE0536911791000D2689946EC
:10AB900053009C46594B62441B6892000093584BEB
:10ABA0000C30D358002298464B46C0472A78930071
:10ABB0009B189B00EB181F71DF80DE601F615F61D7
:10ABC0001F816B780132013BD2B26B702A700A2A66
:10ABD00001D100232B7000232370FFF78FF8B2E719
:10ABE000484B494A1B789B009B589847ABE747491D
:10ABF0000A6801320A60032A54D0022BA1D1414BCA
:10AC0000434A1B789B009B5898479CE70821384A89
:10AC1000136819423ED13F4B364D1A682E78571CA7
:10AC20001F6080235B051969B30098469B199B0040
:10AC3000EB181A690904501EDA881B898018C0189D
:10AC4000090C04F085FC874200D27AE749D04644DB
:10AC5000B600AA19117904293ED0AE193000536903
:10AC6000D2680C305600B218244E92003668009616
:10AC7000234E96590022B047002102202A789300E3
:10AC80009B189B00EB181971D980D8601961596124
:10AC9000198196E78B431360FFF730F853E7FFF70E
:10ACA0001BFD50E7134803789A00D3189A008618C2
:10ACB00032000C321000F268736931795600B21814
:10ACC0000E4E9200366800960D4E96590D22B047F2
:10ACD0002570FFF713F836E701232370FFF70EF80E
:10ACE00031E70D4B1B68002BB1D12AE7622200200F
:10ACF00070220020882100205C2200206C2200208D
:10AD00007822002063220020900702007422002095
:10AD10007C070200542200205822002010B5002099
:10AD20002C2400220221484B1855143418550234A3
:10AD30001A5302341A531034185502341A53023479
:10AD4000D9601876196259639964D9651A705A7076
:10AD50001A71DA801A615A611A815A835A629A62A8
:10AD60009A83DA859A63DA631A86DA641A651A6650
:10AD70005A661A531034185502341A5302341A53AF
:10AD80001034185502341A530634195104341A5128
:10AD900004341A510C3C1A531034185502341A5307
:10ADA0000634195104341A5104341A510C3C1A5304
:10ADB0001034185502341A530634195104341A51F8
:10ADC00004341A510C3C1A5310341855BA201A5234
:10ADD000063019501967C2315A5004315A500C3993
:10ADE0005A679A675A52194B1A80194B5869431C73
:10ADF00025D080235B0519690904090C04F0A8FB20
:10AE000080235B051B6903381B041B0C5843114B43
:10AE1000002118600023104A002013600F4A1360BD
:10AE200013815381D3609382D3820D4A11700D4AEE
:10AE300013600D4A136004220C4B1A6010BD80236E
:10AE40005B055869DCE7C0468821002060220020AD
:10AE500000100010682200205422002078220020D8
:10AE600062220020742200205C2200207022002038
:10AE7000F8B54F464646C0B4314B04001B680D0080
:10AE800008205B0703D40CBC90469946F8BD002C03
:10AE900052D0002950D02368002B4DD0802252057B
:10AEA0001369A6889BB201389E42ECD80F2EEAD9CE
:10AEB000E388002BE7D0734399462249224B0F6861
:10AEC00058698846B944431C38D011690904090CF3
:10AED00004F03EFB80225205136901381B041B0C51
:10AEE000434307209945CED8B307CCD1174B03383D
:10AEF0001E889946022EC6D00C23C0C57343144841
:10AF00002568C1184F601D50A58801360D81E08865
:10AF100048816843136911699BB2C018013889B22E
:10AF2000146904F09FFB4346A4B26043C7191F6035
:10AF30004B4600201E80A6E70E20A4E75069C9E713
:10AF400070220020682200200010001060220020E3
:10AF500078220020F0B5134B1C680823640701D445
:10AF60001800F0BD00281BD0002A19D00468013B4E
:10AF7000012CF5D865000C4E2D19AD00AF59002FEE
:10AF8000EED075192E8940687143091868894643C7
:10AF900068683618B142E3D2146051600023DFE7DD
:10AFA0000E23DDE77022002078220020F0B547460E
:10AFB00080B41F4C0500246882B00820640703D4C5
:10AFC00002B004BC9046F0BD00292FD0002D2DD03A
:10AFD0002C680138012CF3D867003C19154EA400E9
:10AFE000A759002FECD06F683419BC4626896789B1
:10AFF000B04677436668BC19A445E1D2002ADFD089
:10B000009045DDD3D418A045DADB09308C07D7D1C1
:10B0100003242342D4D166462642D1D100930F386F
:10B0200013000A002900FFF725FDC9E70E20C7E736
:10B030007022002078220020F0B5474680B41F4CD3
:10B040000500246882B00820640703D402B004BC61
:10B050009046F0BD00292FD0002D2DD02C6801384E
:10B06000012CF3D867003C19154EA400A759002FF6
:10B07000ECD06F683419BC4626896789B04677439F
:10B080006668BC19A445E1D2002ADFD09045DDD323
:10B09000D418A045DADB09308C07D7D1032423422A
:10B0A000D4D166462642D1D100930C3813000A0051
:10B0B0002900FFF7DFFCC9E70E20C7E77022002058
:10B0C00078220020F0B546464F46C0B41600284A04
:10B0D0000500126883B00C000820520704D403B0A6
:10B0E0000CBC90469946F0BD00293ED0002D3CD0C6
:10B0F0000A680138012AF2D81E49894651008A1887
:10B100004946920089580029E9D061684A448C4632
:10B110001189884647465189526879438A1894456F
:10B12000DDD2002EDBD0B045D9D3F2189045D6DB66
:10B130000930AA07D3D103221342D0D1614611406E
:10B140008846CCD1634419003200280004F085FB06
:10B150000C232268009653434A462000D658022109
:10B160002B004246B0474046B9E70E20B7E7C0463D
:10B170007022002078220020F0B546464F46C0B429
:10B18000244B83B01B6805000E0008245B0705D420
:10B19000200003B00CBC90469946F0BD002836D084
:10B1A0000368013C012BF3D85900CB181A4A9B00C5
:10B1B00099580029ECD0D3181A895F894168574300
:10B1C000586888463F189146B942E1D20B000934CD
:10B1D0009B07DDD1081A110004F040FA093C002950
:10B1E000D6D14946300004F039FA89B20029CFD1CE
:10B1F000002ECDD04346F3189F42C9D3002233001E
:10B20000009229000320FFF735FC0400C0E70E245C
:10B21000BEE7C0467022002078220020074B1A6843
:10B220000823520701D418007047002804D0044BAB
:10B230005B7803600023F6E70E23F4E7702200201A
:10B2400088210020A02210B5064BD205D1588023BA
:10B250001B041C00A1208C430B400349C000145068
:10B26000535010BD040500000C050000F8B54F4612
:10B2700046460400C0B4112809D0122839D013283A
:10B2800039D0142839D00CBC90469946F8BD002519
:10B29000012911D000291FD00229F4D16B005D19BA
:10B2A0001F4B5D196E78002EEDD01E4B1B68002BD6
:10B2B000E9D030009847E6E7194B6F0098464246C0
:10B2C0007B19D65C43445B78002B18D17F19474427
:10B2D000BA78154B5A55E6E71448FDF713FE104AA5
:10B2E0006B005B19D318104A9B78565D9E42CAD1F9
:10B2F000D9E70125CCE70225CAE70325C8E70C4BAF
:10B300000A4899460B4B4A461B689900C9184900E0
:10B31000FDF782FD0028D9D14B461C70D6E7C04608
:10B3200008230020E0220020B0220020BC220020C0
:10B33000E4220020DC220020F8B5C64B1B68DB07A6
:10B3400000D4F8BDC44A1478172CFAD8C349A30016
:10B35000CB589F46A022C24BD205D1588023DB0395
:10B360001C00A1208C430B40BE49C0001450535018
:10B37000BD4B00221B68BD489900C918FDF74CFD64
:10B38000DFE7A023F021B74ADB05490499500021EB
:10B39000043A9950D5E7A022B14BD205D158802369
:10B3A000DB031C00A1208C430B40AE49C0001450AD
:10B3B0005350AD4B00221968AC48FDF72DFDC0E796
:10B3C000AB4BA1201968E0235B048B43A02100262E
:10B3D000F025C905C000A34C0B50A14B0E51CB5812
:10B3E0006D046B408025AD032B4000D129E10D5049
:10B3F00003230E51082113709B4B00221B689B48AE
:10B400005943FDF709FD9CE7994BA1201968E023FA
:10B410005B048B43A0210026F025C905C000914C98
:10B420000B508F4B0E51CB586D046B408025AD03F4
:10B430002B4000D100E10D5004230E512821DAE702
:10B44000A023A122E021DB05D200490480249950E9
:10B4500000218448A40319501C50995071E7854D70
:10B460002800FDF74FFD11231C1B00D1C9E0002867
:10B4700000D0C6E080237E4E1B043360012C10D028
:10B48000C8306421604304F063F8774B00221B68E6
:10B49000434328001900FDF7BFFCF02332685B042A
:10B4A0001340A0226F49D2055350A1230021DB0095
:10B4B000D15046E76E4BA1211A68F0235B049343F9
:10B4C000A022C900D20553500021664BD15038E765
:10B4D000674BA1201968E0235B048B43A021002760
:10B4E000F026C905C0005F4D0B505D4B4F51CB5846
:10B4F000760473408026B603334000D190E00E50AE
:10B500004F512821022C79D0147075E7A023A12275
:10B51000C021DB05D2004904C024995000215148C4
:10B52000E40319501C5099500BE7A023A122D0210D
:10B53000DB05D20049048024995000214948E403E6
:10B5400019501C509950FCE6A023F021A122DB05E4
:10B550004904D20099500021424A9950F1E6E02274
:10B56000434B52041B68A1219A43A023C900DB0569
:10B5700080245A5000223B48A4031A501C505A50B1
:10B58000DFE63B4BA1201968E0235B048B43A0213D
:10B590000026F025C905C000324C0B50304B0E512F
:10B5A000CB586D046B408025AD032B4041D00D502E
:10B5B0000E51052313702C4B002219682B484900AB
:10B5C000FDF72AFCBDE62A4BA1201968E0235B04A5
:10B5D0008B43A0210026F025C905C000214C0B504B
:10B5E0001F4B0E51CB586D046B408025AD032B4093
:10B5F0002CD00D500E5106231370DAE61639147054
:10B60000FAE6F0231A4A5B041168A1200B40A0213E
:10B61000C000C9050B50002312480B50136090E680
:10B620004E510B500421022C00D06DE702391470EA
:10B63000E2E60D510B50BCE70D510B5004210423E1
:10B64000D9E60D510B5002210323D4E60D510B50C6
:10B65000D1E7C046B8220020E5220020A40702005E
:10B66000040500000C050000DC22002090220020D0
:10B67000B4220020E822002010B50378112B06D058
:10B68000122B12D0132B12D0142B12D010BD00236A
:10B690005A00D318084AD31858780028F6D0074B18
:10B6A0001B68002BF2D09847F0E70123F0E7022354
:10B6B000EEE7113BECE7C04608230020E022002023
:10B6C000002303280DD8A223A022DB00D205D258E4
:10B6D000054B8000C0580123834093435A1E934179
:10B6E000DBB200200B7070476408020070B5DB4BC2
:10B6F00004001B680020DB0700D470BD172CFCD8A9
:10B70000D74AA300D3589F46A022D64BD205D15882
:10B710008023DB031C00A1208C430B40D249C000D6
:10B7200014505350D14B00221B68D1489900C918BE
:10B73000FDF772FBE1E7A022CA4BD205D158802366
:10B74000DB031C00A1208C430B40C749C0001450F0
:10B750005350C64B00221968C548FDF75DFBCCE786
:10B76000C44D2800FDF7CEFB11231C1B00D14CE17A
:10B77000002800D049E18023BF4E1B043360012C18
:10B7800010D0C8306421604303F0E2FEB74B0022C2
:10B790001B68434328001900FDF73EFBF023326885
:10B7A0005B041340A022B049D2055350A1230021CD
:10B7B000DB00D150A1E7A023F021A122DB05490441
:10B7C000D20099500021A84A002099501222AB4B78
:10B7D0001A7092E7A023A122E021DB05D2004904E0
:10B7E000802499500021A048A40319501C5099505E
:10B7F0001322A24B00201A707FE7A023F0219A4A5F
:10B80000DB05490499500021043A99509B4B0020D4
:10B810001C7072E7984BA1211A68F0235B049343D4
:10B82000A022C900D205535000238F490020535055
:10B83000924A137061E7904BA1211A68E0235B04E0
:10B840009343A0220026F025D205C9008648535014
:10B85000844B1650D3586D046B408025AD032B40AC
:10B8600000D1E9E0555016502821022C00D1F2E019
:10B87000824B1C707D4B00221B687D485943FDF7AD
:10B88000CBFA3AE7A023F021774ADB054904995027
:10B890000021043A99500C22784B00201A702CE7B2
:10B8A000A023A122D021DB05D20049048024995095
:10B8B00000216D48E40319501C50995014226F4B1D
:10B8C00000201A7019E76C4BA1211A68E0235B0471
:10B8D0009343A0220025F024D205C90062485350AA
:10B8E000604B1550D358640463408024A403234064
:10B8F00000D199E054501550082103221AE05E4B04
:10B90000A1211A68E0235B049343A0220025F024C0
:10B91000D205C90054485350524B1550D3586404B3
:10B9200063408024A403234000D18DE0545028219B
:10B9300015500422514B1A709CE7E0224E4B5204E2
:10B940001B68A1219A43A023C900DB0580245A501B
:10B9500000224548A4031A501C505A50474B073246
:10B960001A700020C9E6A023A122C021DB05D20065
:10B970004904C024995000213B48E40319501C504D
:10B98000995015223D4B00201A70B6E63A4BA12182
:10B990001A68E0235B049343A0220025F024D2051B
:10B9A000C900314853502F4B1550D358640463409D
:10B9B0008024A40323403CD05450155005222F4B23
:10B9C0002B481A70294B002219684900FDF724FA08
:10B9D00093E6294BA1211A68E0235B049343A0223C
:10B9E0000025F024D205C9001F4853501D4B1550A7
:10B9F000D358640463408024A403234028D05450C7
:10BA0000155006221D4B1A70A3E6F0231A4A5B0458
:10BA10001168A1240B40A021E400C9050B510023AB
:10BA2000114C0B51136068E614505350022103224D
:10BA300080E714505350C1E7155053500421022C95
:10BA400000D015E7023913E714505350042170E772
:10BA500014505350D5E716390AE7C046B8220020E3
:10BA600004080200040500000C050000DC22002090
:10BA700090220020E8220020B4220020E5220020AD
:10BA8000234B10B51960234B04001860224B1A6039
:10BA9000830712D50D22214B21481A700132DA702A
:10BAA00001329A7101325A724A080421FCF738FCBB
:10BAB000002820D0E30703D410BD0020E3070DD5F4
:10BAC000A023F022A1210024DB055204C9005A5012
:10BAD00014495C500C315A500028EDD1124A002113
:10BAE0001248FDF77FF90028E6D1114A01211148DB
:10BAF000FDF778F9E0E7FCF76DFC0028DAD10E4A93
:10BB000000210E48FDF76EF9E307D9D4E4E7C046FB
:10BB1000DC220020B8220020E022002008230020A0
:10BB2000780802000C05000039B3010098080200F3
:10BB300045B201009C08020079B6010074080200B9
:10BB400003000720032B00D97047012A13D00129D5
:10BB500017D0002908D0022919D15800C3180D4860
:10BB6000C3185A700020EFE75800C3180948C318DB
:10BB70009A700020E8E700220129E8D11A000D326E
:10BB8000D2B258000349C3185A540020DCE70720FA
:10BB9000DAE7C04608230020E0231D4ADB00D25824
:10BBA0001C4B13400022C10701D5C022920213434F
:10BBB000E0221749D2008B50174B9A58154B13406F
:10BBC0000022810701D5C02292021343E0221249CC
:10BBD000D2008B50114B9A580E4B13400022410754
:10BBE00001D5C02292021343E0220C49D2008B50AF
:10BBF0000B4B9A58074B13400022010701D5C02276
:10BC000092021343E0220649D20000208B50704775
:10BC100044000050FFFFFCFF480000504C00005063
:10BC20005000005010B50320FFF7B6FF0023002896
:10BC300002D0031E062B01D0180010BD0023FBE725
:10BC400010B50388102B08D0112B05D1294A136891
:10BC5000013B1360002B07D010BD264C2368002B3E
:10BC600011D001332360F7E7012202210020FFF702
:10BC700067FF00282BD0072829D01F4B1B68002BFB
:10BC8000EAD09847E8E7012200210020FFF758FF9B
:10BC9000002808D0072806D0174B1B68002B00D0BF
:10BCA00098472368DDE7072202210120FFF748FFBC
:10BCB000002801D00728EFD1042202210020FFF73D
:10BCC0003FFF0028EDD00728E6D12368C9E7072207
:10BCD00002210120FFF734FF002801D00728CCD132
:10BCE0000A2200210020FFF72BFF0028B4D00728EC
:10BCF000C3D1B1E7182300201423002010B5234B33
:10BD000082B00C1E186018D06B460020991DFFF7FA
:10BD1000D7FC002801D002B010BD6B460130D91D00
:10BD2000FFF7CEFC0028F6D16B46DB79002B26D13D
:10BD30006B469B79002B25D12370154B1B68002B7C
:10BD400001D00020E7E7012202210020FFF7F8FEE2
:10BD5000002801D00728DED1072202210120FFF7A9
:10BD6000EFFE002801D00728D5D10A2200210020AB
:10BD7000FFF7E6FE0028E4D00728CCD1E1E7022354
:10BD80002370DAE70B232370D7E7C0461423002083
:10BD90001823002076DF70477ADF70477CDF70471A
:10BDA00060DF70473CDF704748DF704710B5002206
:10BDB0000021FCF727FB10BD10B50400FEF7A4FE20
:10BDC000200001F0D7F910BD00B595B0072814D8B0
:10BDD000304B80001B589F460020FFF787FC00284F
:10BDE00052D1FFF71FFF002849D1FFF7DBFF0028E2
:10BDF00003D000220021FCF705FB15B000BD08238D
:10BE00006A461371137304AB009369460CAB224866
:10BE1000029302F0B1FD002827D1684601F0D4F961
:10BE20000028EAD0E5E70520FFF760FC0028E4D011
:10BE3000DFE70220FFF75AFC0028DED0D9E7042014
:10BE4000FFF754FC0028D8D0D3E70320FFF74EFCBF
:10BE50000028D2D0CDE70320FFF748FC002809D105
:10BE600001F01CFA0028C8D0C3E700220021FCF72B
:10BE7000C9FAD2E700220021FCF7C4FAF0E7002259
:10BE80000021FCF7BFFAB0E700220021FCF7BAFA64
:10BE9000A7E7C046A00802009429002010B5037847
:10BEA000022B02D0012B00D010BD406800220021DF
:10BEB000FCF7A8FAF8E7C04610B50378002B00D0CD
:10BEC00010BD064B3B211888FFF764FF0028F7D010
:10BED00000220021FCF796FAF2E7C0466820002015
:10BEE00010B50B780C00042B55D8374A9B00D3585B
:10BEF0009F46364803F0BAFC354803F0B7FC354896
:10BF000003F0B4FCA37A344A9B009958334803F0F9
:10BF1000ADFC617900294FD1314803F0A7FC2379AA
:10BF2000304A9B009958304803F0A0FC61880029F2
:10BF300046D02E4803F09AFC2D4803F097FCA179D7
:10BF40002C4803F093FCE1792B4803F08FFC217A15
:10BF50002A4803F08BFC217B294803F087FC294801
:10BF600003F084FCA17B28480907C90F03F07EFC7D
:10BF7000A17B26484907C90F03F078FCA17B244820
:10BF80008907C90F03F072FCA17B2248C907C90FBA
:10BF9000C9B203F06BFC10BD1F4803F067FCFAE761
:10BFA0001E4803F063FCF6E71D4803F05FFCF2E770
:10BFB0001C4803F05BFCEEE71B4803F057FCAEE7C0
:10BFC0001A4803F053FCB7E7C0080200A4090200B6
:10BFD000BC090200CC09020014090200D4090200C5
:10BFE000E8090200E0080200140A0200400A020008
:10BFF000540A02005C0A02006C0A02007C0A020079
:10C000008C0A0200AC0A0200C00A0200D80A020030
:10C01000F00A0200080B0200200B02006009020077
:10C02000340902008C090200000A0200280A0200FA
:10C0300010B5040002F0D2FD2100134801F06AFDA2
:10C040002000FFF7FDFD2388102B10D0112B03D10A
:10C0500001220E4B52421A80200001F01FFA2100EB
:10C060000B4801F0E3FA200001F00EF810BD0720A4
:10C07000FFF73CFB002803D000220021FCF7C2F9A7
:10C08000A288024B1A80E7E7182A002068200020C7
:10C09000082A002030B5134B83B01A88124B9A42FD
:10C0A0000BD06B46114DDC1D2100280002F02AFC4C
:10C0B00000280ED12378002B01D003B030BD28001A
:10C0C00002F0F2FB0028F8D000220021FCF79AF9D8
:10C0D000F3E700220021FCF795F92378002BECD13F
:10C0E000EDE7C04668200020FFFF0000BC290020CB
:10C0F00070B505000C00101E1FD12378112B0AD03B
:10C10000152B06D163680F48198801F0CDFC002873
:10C110000ED1002070BD042229000B4803F09DFBC6
:10C120008021002289020948FCF776FE0028F0D021
:10C1300000220021FCF766F9EBE700220021FCF762
:10C1400061F9DAE7182A0020BC290020982900208C
:10C1500010B500220021FCF755F910BD10B50A28D2
:10C1600020D00D2810D0042800D010BD194B132169
:10C170001888FFF70FFE082302009A43F5D000222B
:10C180000021FCF73FF9F0E7124B1A88124B9A4254
:10C19000EBD0124801F0E2FA0528E6D1104803F08E
:10C1A00065FBE2E70020FFF7A1FA00280DD1FFF7B9
:10C1B00039FD002804D1FFF7F5FD0028D5D0DEE7D2
:10C1C00000220021FCF71EF9F5E700220021FCF710
:10C1D00019F9ECE768200020FFFF0000082A002082
:10C1E000380B020010B50A0001000248FCF70AF9FA
:10C1F00010BDC046EFBEADDE70B5B34B9AB0B34ACA
:10C2000005210020FCF77CFD002803D0002200213E
:10C21000FCF7F8F8AE4A0021AE48FCF7E3FD002831
:10C2200003D000220021FCF7EDF803AD2A00AA4B51
:10C2300013CB13C2A94B0CAC0C9301236360A84B26
:10C24000A84AA3608023DB00E360210003232800C9
:10C25000FCF74EFF002803D000220021FCF7D2F8A3
:10C26000A14AA2490320FFF70BFC002803D00022BB
:10C270000021FCF7C7F821000020FFF73FFD002850
:10C2800003D000220021FCF7BDF826784822023EA8
:10C2900073425E41964900230820F6B203F0DAF8B3
:10C2A000002803D000220021FCF7ACF8082200216E
:10C2B0002000FBF7ADFF0122237820009343237079
:10C2C000FFF76EFD002803D000220021FCF79AF84A
:10C2D000884803F0E5F8002803D000220021FCF78D
:10C2E00091F8854803F0E6F8002803D000220021E9
:10C2F000FCF788F82E70FEF711FD002803D000220D
:10C300000021FCF77FF8280002F0F4F9002803D0A0
:10C3100000220021FCF776F8352005220021684430
:10C32000FBF776FF01236279022113431C22DBB263
:10C330008B4393430C221343DF2213406371072383
:10C34000A3710933E3716D4B21716D4821000C938A
:10C3500002F06CFA002803D000220021FCF752F80A
:10C3600001F068FB002803D000220021FCF74AF806
:10C37000644A0A210820FCF791F8002803D0002223
:10C380000021FCF73FF80F2101222B785E4E8B43F2
:10C39000134310220B40134330002B7003F080FA3C
:10C3A000310082B22800FFF7F9FC002803D00022F8
:10C3B0000021FCF727F8082200212000FBF728FFC6
:10C3C000C822C8239200628000225B0020002380E4
:10C3D000A280E380FFF7E0FC002803D000220021C8
:10C3E000FCF710F8382200212000FBF711FF022390
:10C3F00005222370013BA3702383444BE27000218C
:10C400001F322800E361FBF703FF28232B610A3B5F
:10C410006B61C8231B01EB61B42301262B6200234F
:10C420002E702E732E762A0000930021384B2000A8
:10C4300000F06AFD002803D000220021FBF7E2FF94
:10C44000344B21000C93344B3448636001F0C4F842
:10C45000002803D000220021FBF7D4FF1C2200217A
:10C460002000FBF7D5FEA02292026260F02200239A
:10C470001203A26003220C93E3812374284B200053
:10C480006361284B2273A36100F0CCFF002803D026
:10C4900000220021FBF7B6FF032000F0D7FD0028A3
:10C4A00003D000220021FBF7ADFF1F4803F0DEF9A7
:10C4B000FCF7D6F8FFF778FC0028F9D0002200211D
:10C4C000FBF7A0FFF4E7C046E58F01001C27002022
:10C4D00095C00100380C0200D4080200B8290020E1
:10C4E0001C2300209DBE01005DC10100CD0C000099
:10C4F000C029002031C00100B9BD0100F1C0010018
:10C5000094290020E4280020640B0200642000200D
:10C51000C9BD0100E1BE010051C10100082A00208F
:10C52000B9BE0100ADBD0100700B020071DF7047A4
:10C5300072DF704779DF70477DDF704765DF7047D6
:10C54000F0B55F4656464D464446F0B485B09A462F
:10C550000EAB80CB06001B8800919B463B88019365
:10C560000388002B63D00023994602ABDD1C3B00FF
:10C5700000241700984603E033880134A3422CDDE1
:10C580007368A1009C460422614403A803F065F986
:10C590000022290003A8FFF7D1FF002829D12B781A
:10C5A000BB42E9D14B46002B2AD043461A88D31907
:10C5B0005B453EDC5244290003A8FFF7BFFF00287B
:10C5C00017D143462A781B880134D318424613807A
:10C5D000012399463388A342D2DC4B464746002BC1
:10C5E00025D03B88019A013B9B1A9BB20C20FF2B64
:10C5F0001AD905B03CBC90469946A246AB46F0BD60
:10C6000043461B88DA1902325A4512DC424601338E
:10C6100069469BB2138052460978D15443461A8822
:10C62000013292B21A80C5E71100524653540020DD
:10C63000DFE70C20DDE7C046F0B55F4656464D46C5
:10C6400044460023F0B417881380436B87B006007C
:10C650000D001400002B00D19CE1022F00D891E1C5
:10C660001A7802230B701121238801339BB2238097
:10C67000E954238801339BB22380EA542388013391
:10C680009BB22380326B002A00D170E01900123176
:10C69000B94200D976E11121E954238801390133E7
:10C6A0009BB22380E954238801339BB22380D17B42
:10C6B000E954238801339BB22380917BE95423887A
:10C6C00001339BB22380517BE954238801339BB211
:10C6D0002380117BE954238801339BB22380D17AD4
:10C6E000E954238801339BB22380917AE95423884B
:10C6F00001339BB22380517AE954238801339BB2E2
:10C700002380117AE954238801339BB22380D179A5
:10C71000E954238801339BB223809179E95423881B
:10C7200001339BB223805179E954238801339BB2B2
:10C7300023801179E954238801339BB22380D17877
:10C74000E954238801339BB223809178E9542388EC
:10C7500001339BB223805178E954238801339BB283
:10C7600023801278EA54238801339BB223802E223F
:10C77000B25C002A00D00FE12D22B25C002A00D06A
:10C780002CE1B278002A00D055E1F278002A14D0CA
:10C79000D91CB94200D9F5E00221E95423880139B6
:10C7A00001339BB22380E954238801339BB2238059
:10C7B000EA54238801339BB223807268002A15D083
:10C7C000D91CB94200D9DDE002211278E95423884E
:10C7D000083101339BB22380E954238852B20133DC
:10C7E0009BB22380EA542388013323803389002BB2
:10C7F00000D09BE1338A002B00D0B1E1338B002BBA
:10C8000000D0C7E1336A002B4BD022880C20911D49
:10C810009346B94200D9B6E0198805388A460529F9
:10C8200000D8B0E0BB496A468C46D4446146D18109
:10C83000D1898C46B84988468C4500D8A3E05988F0
:10C840008C46052900D89EE0B2496144D18189B265
:10C85000414500D897E0B1498A4504D08C4502D0C3
:10C86000E24500D98FE005215A46A95422880D31AE
:10C87000013292B22280A9542288013292B22280DF
:10C880001988AA181170090A51702288023292B2CE
:10C8900022805988AB181970090A5970238802330D
:10C8A0002380736A9846002B30D09A882188131D04
:10C8B0005B180C20BB4266D8931CFE2B63D8033256
:10C8C0006A54FF22238801339BB22380EA544246F4
:10C8D000238801339BB223801288EB181A70120A46
:10C8E0005A704246238802339BB223809288002AE2
:10C8F0000CD0414689680538002944D0E81802F078
:10C90000ACFF434622889B88D31823802C23F35CFA
:10C91000002B00D0B0E033780020002B33D03288D9
:10C920000720012A2FD02288901CB8422AD8012B38
:10C9300004D1737802339B189F4223D3023FBA1A63
:10C9400004AF93B22818390098463B80FFF7F4FDF6
:10C95000002818D13378022B00D141E1012B00D1FE
:10C96000DEE043460821FE2B0CD822885E1CAE5424
:10C970002288013292B22280A954228801329B1867
:10C98000238000E00C2007B03CBC90469946A246AC
:10C99000AB46F0BD002375E6D91C0C20B942F2D895
:10C9A0000221E9542388103001339BB22380E854DC
:10C9B000238801339BB22380022A00D10BE100D8E7
:10C9C00004E1032A00D109E1042A00D0FCE003229B
:10C9D000EA54238801339BB22380CDE609330C202F
:10C9E000BB42D0D804A8FFF7A1FD0028CBD1082274
:10C9F00023880921EA542388133201339BB2238010
:10CA0000EA5402AB9C462088153A013080B220805F
:10CA10006144281802F021FF238802AA0633127A03
:10CA20009BB22380002A00D00122EA5423880133DC
:10CA30009BB22380A5E604330C20BB42A3D804A8F4
:10CA4000FFF778FD00289ED103222388EA5423882B
:10CA5000163201339BB22380EA54238802AA0133A1
:10CA60009BB212892380EB181A70120A5A7023881D
:10CA700002339BB2238088E6B36A9846002B00D12C
:10CA8000A2E09B880233FE2B00D97BE7002291466F
:10CA9000163292461632208893460CE04B46B26A14
:10CAA0005B0090464B449B00984443469B8802336E
:10CAB000FE2B00D966E7524601332B5423880133FD
:10CAC0009BB22380EA544246238801339BB22380E1
:10CAD0001288EB181A70120A5A70434620880230E6
:10CAE00080B220809A88002A0BD0996800296BD0E8
:10CAF000281802F0B2FE434620889B88C01880B2F6
:10CB000020804B460133DBB299465B46F35C4B45D4
:10CB1000C4D800E77FF3FFFF7DF30000FFFF0000B4
:10CB20007378984500D31DE743461BE708239846D2
:10CB3000B044019700942B00022202214046FFF7E7
:10CB4000FFFC002800D01EE7019700942B00102264
:10CB500006214046FFF7F4FC002800D013E749E621
:10CB600010239846B044019700942B000222032121
:10CB70004046FFF7E5FC002800D004E70197009449
:10CB80002B00102207214046FFF7DAFC002800D0D6
:10CB9000F9E633E618239846B044019700942B0039
:10CBA000022214214046FFF7CBFC002800D0EAE621
:10CBB000019700942B00102215214046FFF7C0FC7E
:10CBC000002800D0DFE61DE60720DCE6012AFBD1C5
:10CBD0000022EA54FDE60122EA54FAE6E954F8E6B6
:10CBE0003B880921984500D3BDE64346BAE6C046D6
:10CBF00030B593B01F236A460C009380D380002881
:10CC000022D0C3785B071CD501AA02A9FFF714FD47
:10CC100002AD002816D1002C19D0E378002B10D1DA
:10CC20006B460AA99A1D2000FFF706FD002809D1CE
:10CC30006B469B790AAA694628000979FFF778FCB8
:10CC400000E0072013B030BD90800025E3E76B467D
:10CC50000022DC800023EEE773DF704774DF70474B
:10CC600070B59F4E86B0072200213000FBF7D0FA46
:10CC70009C4C6378002B6ED09B4D2B78012B05D0FC
:10CC8000A278002A00D1EFE0022B0FD1974A126858
:10CC9000002A00D1FDE00121954B08201970904732
:10CCA0002B78012B00D1F7E0022B5FD0227B002AEA
:10CCB00001D1032B7AD0227E002A02D1042B00D18D
:10CCC00007E18A4A1268002A02D0033B012B77D978
:10CCD0000022884B1A70182200216846FBF798FA48
:10CCE00000236A46137013722A7801930393022A71
:10CCF00000D18BE072D9032A00D194E0042A22D11A
:10CD00006B46A28B1A82228C5A827B4B1A79002A9C
:10CD100000D1B6E02278002A00D1B6E0774A127836
:10CD2000002A00D0B1E0694603930423023274481C
:10CD30000A720021C370FFF75BFF002864D106224E
:10CD4000704B1A702A78002A51D1684B1B68002B4F
:10CD500056D1002058E0A378634D002BA0D02B784B
:10CD6000022B93D0012BA1D102232B70A378002B8F
:10CD700017D07378002B00D0B0E0B378002B00D030
:10CD8000ACE0F378002B00D0A8E03379002B00D082
:10CD9000A4E07379002B00D0A0E0B379002B00D081
:10CDA0009CE003232B70237B002B61D104232B7089
:10CDB000237E002B00D18CE04C4B1A68002A87D0D0
:10CDC0002378002B84D04D4B1B78002B00D07FE7BD
:10CDD0000121484B0720197090477CE7012AB2D106
:10CDE00069464B820B82474B01960A701A7068465F
:10CDF000FFF732FF002807D13C4B1B68002BA8D05F
:10CE0000404A10789847002006B070BD012369465B
:10CE10000B706B46218901965982694663680B82C3
:10CE2000384B1A70E3E76B46A28A5A82228A1A822A
:10CE3000314B1A79002A1DD02278002A1DD02F4AA2
:10CE40001278002A19D169460393042302322C4830
:10CE50000A720021C370FFF7CBFE0028D4D105224F
:10CE6000284B1A702A786EE7022B00D01EE798E74D
:10CE7000032326E71A7B002ADED10322214B1A70F6
:10CE8000B5E71A7B002A00D044E704221D4B1A7034
:10CE9000ADE717490A7004E76278002A00D163E71A
:10CEA0007278002A00D00CE7B278002A00D008E798
:10CEB000F278002A00D004E73279002A00D000E797
:10CEC0007279002A00D0FCE6B279002A00D14BE743
:10CED000F7E600230B4A2B701370F9E60223F0E605
:10CEE000042B00200C2B0020A42B0020D82A00208B
:10CEF000A52B0020832B0020542B0020FF2A00208C
:10CF0000942A0020B82B0020F8B504000E000E2053
:10CF1000002C00D17BE0002A79D000203C49087029
:10CF20003C490B6006993C4B19603C490B0023CAF5
:10CF300023C323CA23C323CA23C30722002138489B
:10CF4000FBF766F9374B384A384D1A60384A0021EA
:10CF50009A6028003822FBF75BF9237822002B70B7
:10CF6000A3781032AB70E378EB7063786B702B00B2
:10CF7000103303CA03C32B00103A083303CA03C398
:10CF80002B000832183303CA03C3636A002B11D085
:10CF9000284B294F6B62616A9F600A881A808888D3
:10CFA0009880002806D000238A68D25CFA540133A6
:10CFB0008342F9D1A36A002B14D0204B204FAB62DF
:10CFC000A06A9F608188998002881A8000230029C6
:10CFD00005D08268D25CFA5401338B42F9D12C23FC
:10CFE000E25CEA54236A002B06D0164B2B62226ABD
:10CFF0005188598012881A806368002B03D0124B25
:10D000006B6063686B6031002800FFF7F1FDF8BDCD
:10D01000A42B0020D82A0020002B00200C2B00205D
:10D02000042B0020542B0020302B0020942A0020B9
:10D03000842B0020CC2A0020E02A0020AC2B0020EA
:10D04000642B0020A82B0020502B002010B50024BA
:10D050000B4B82B0187001A80194FEF7DFF8082886
:10D0600009D0002805D1019B002B05D00122054BDA
:10D070001A7002B010BD0194FFF7F2FDF9E7C04647
:10D08000A42B0020DC2A002030B5038883B0112BAC
:10D090001ED0192B07D0102B01D003B030BD8288D1
:10D0A0002D4B1A80F9E78479002CF6D12B4B1D7893
:10D0B000022D4ED038D9032D23D0042DEDD1284B8D
:10D0C0001C70284B1B68002BE7D000209847E4E732
:10D0D0000024254B1C70204B82881B889A42DCD18F
:10D0E00001251E4B01A81D700194FEF797F8082832
:10D0F00024D0002827D1019B002B20D01B4B1D7072
:10D10000CBE7174A1570042201A81A700194FEF7A4
:10D1100085F8082812D0002815D1019B002B0ED0CD
:10D120000122124B1A70B8E7012DB6D1022201A8D4
:10D130001A700194FEF772F80828DAD10194FFF70B
:10D140008FFD0028A9D00A4B1B68002BA5D098475B
:10D15000A3E70322D8E7C0466A200020A42B0020C2
:10D16000B82B0020D82A0020FF2A0020DC2A00202B
:10D17000002B002030B5023883B0012803D8104CB2
:10D180002378002B01D103B030BD002501A8257004
:10D190000195FEF743F8082807D000280AD1019B23
:10D1A000002B03D001232370EDE70195FFF758FD15
:10D1B0000028E8D0034B1B68002BE4D09847E2E737
:10D1C000DC2A0020002B002070B5304C03002278B0
:10D1D0000820002A00D170BD1A792D480271197BF0
:10D1E0000173002924D09D682A482E680660012911
:10D1F0001ED06E68466002291AD0AD68856003298A
:10D2000016D09D68ED68C560042911D09D682D6910
:10D21000056105290CD09D686D694561062907D017
:10D220009D68AD698561072902D09968C969C161A6
:10D23000002A26D01968086817490860012A20D0FA
:10D24000186840684860022A1BD0186880688860A7
:10D25000032A16D01868C068C860042A11D018685C
:10D2600000690861052A0CD0186840694861062ADF
:10D2700007D0186880698861072A02D01B68DB69BB
:10D28000CB61002300202370A5E7C046832B00203C
:10D29000542B0020842B0020302B002030B5184B5D
:10D2A00083B01B78002B22D0164C2378002B1ED184
:10D2B000154B1B78002B1DD101252570002401A8DA
:10D2C0000194FDF7ABFF082807D000280AD1019B85
:10D2D000002B03D00D4B1D700AE00194FFF7C0FC3A
:10D2E000002804D00A4B1B68002B00D09847002070
:10D2F00003B030BDFFF7B2FC0028DDD0F8E7C04630
:10D300000C2B0020FF2A0020A42B0020DC2A002068
:10D31000002B002075DF704776DF70477ADF70479B
:10D320007BDF704710B5184B82B01888174B9842B6
:10D3300014D0174A174C13780133DBB21370217BDA
:10D3400099420DD200231370237C002B12D1636904
:10D35000002B03D0002201A80270984702B010BD34
:10D360000D49FFF7D7FF0028F8D0A369002BF5D0AF
:10D370009847F3E73B21FFF7CFFF0028E7D0A369E9
:10D38000002BE4D09847E2E7042C0020FFFF0000C8
:10D39000C42B0020C82B0020082C002030B51B4BCC
:10D3A0001B4A5B88118883B099420FD852889A42F1
:10D3B0000CD3184B5B69002B03D0012201A802702B
:10D3C0009847154C0023237003B030BD124C2378CE
:10D3D000002B08D00F4B5B69002BF3D0002201A873
:10D3E00002709847EEE70D4B0A4D1B78002B0BD0CF
:10D3F000A96800220A48FBF70FFD0028E2D0AB69BC
:10D40000002BDFD09847DDE76968F2E7BC2B0020EE
:10D41000082C0020C82B0020B92B0020C42B002092
:10D42000E42B0020164902000B0070B532CA32C34B
:10D4300032CA32C312681A600022124B01681A7095
:10D44000002916D0104C0832200002F006FA200005
:10D45000FFF764FF00280BD101220C4B52421A80C7
:10D4600000220B4B00211A700A480B4AFBF7BAFC4A
:10D4700070BD0548FFF754FF0028EDD0F8E7C0461F
:10D48000C82B0020B92B0020082C0020042C0020E1
:10D49000C42B00203C0C020025D3010010B50388EA
:10D4A000112B35D021D9122B17D0502B1CD1214C48
:10D4B000C288E3899A4217D1C38B022B14D11E3341
:10D4C000C35CDB070ED41C48FBF71CFD00280BD007
:10D4D000A369002B08D0984706E0811D0822174851
:10D4E00002F0BBF9FFF75AFF10BD102BFCD1010071
:10D4F0008288134B16311A801048082202F0ADF9C9
:10D500000022104B1A700B4BDB89002BECD1E9E7A2
:10D5100001220B4B52421A8000220A4B06481A7015
:10D52000FBF7F0FC0028DFD0024B9B69002BDBD01F
:10D530009847D9E7C82B0020E42B0020BC2B002003
:10D54000042C0020C42B002095DF704770B50378B1
:10D5500084B0002B05D143681A021C4B120A9A4270
:10D5600009D000236A461370194B6946186803688E
:10D57000984704B070BD164B1E684388B381057A86
:10D58000002D10D0134CC389A34214D002000023F5
:10D590001A3205E00C3211000C390988A1420BD077
:10D5A0000133AB42F6D301236A46137033686946F0
:10D5B00030009847DDE700235A00D3189B00C318BA
:10D5C0001A8B7281DB8A3381EDE7C04605180100B2
:10D5D000102C00202B2A000010B5030082B0002977
:10D5E0001CD04A68002A19D00A680E20002A13D0DD
:10D5F000002B11D01A604A6801245A60012252425D
:10D600009A81002206481A81036001A88470054CA3
:10D610000549048000F01EFA02B010BD0E20FBE7A1
:10D62000102C0020051800004DD50100F0B544462F
:10D630005F4656464D46F0B40B8887B00400112B68
:10D640001BD0352B0BD0102B06D007B03CBC90461E
:10D650009946A246AB46F0BD8B888381F5E7CB881F
:10D66000002BF2D10B8A0A2B16D0042302AA1370C6
:10D670001100236820009847E7E701235B4283817C
:10D680000389002BE1D0022302AA13701100036862
:10D69000984700232381D8E7C87C8B7C0D7D00024E
:10D6A000184302AB58801D714B7D01271A0001936E
:10D6B00002AB5A718B7D99464A4602AB9A71CB7D7B
:10D6C0009846424602ABDA710B7E9C46624602AB3C
:10D6D0001A724B7E9A46524602AB9A728B7E02AA0F
:10D6E0001373927BCB7EBA43934639005E46194052
:10D6F00031430226B1438B465E465A083A405200F7
:10D7000032430426990839408900B2430A4308216C
:10D71000DB083B40DB008A431A4302AB9A730D4B94
:10D720009842A2D801380C4B80B298429DD90C2D5A
:10D730009BD8019B1F2B98D84B46172B95D8434657
:10D740003B2B92D863463B2B8FD85346072B8CD864
:10D7500003238BE70F2700002C06000010B501897A
:10D7600003000520002900D110BD98890022FFF791
:10D77000EBFEF9E790DF704792DF704793DF704769
:10D78000F0B54D465F46564644467823F0B4C25C39
:10D79000364B83B01D68002D0CD03A235343344CD4
:10D7A000C3189F78A678BE420BD0012D02D9A67A65
:10D7B000BE420DD003B03CBC90469946A246AB4653
:10D7C000F0BD2688B0461E88B045EED1002304E0A7
:10D7D00027891B889F42EDD10123DB00E418636891
:10D7E0009A46002BE6D0234B1C689846012CE1D8C2
:10D7F0007423C35A27019B461F4B99463B199B0034
:10D800009C46CC44019366465B467380002927D032
:10D8100000214B46019EF15463463A315143043393
:10D8200041183A22180002F018F853463F19BF0079
:10D830004F443B64434601341C60A542BAD148467C
:10D84000036C9847094B1B68012B05D94846842374
:10D850004A464430D3589847002342461360A9E70C
:10D8600002224B460199CA54DFE7C046B42C00207F
:10D87000A02C00209C2C0020142C0020F0B5464643
:10D880004F4678238C463A21C0B4C45C013BC25C4D
:10D890004C4353009B1801199B001B190D79C318A9
:10D8A000561C83B00A338846AE4239D06E1EA1465C
:10D8B0007721AA422CD296421AD001321F895300F6
:10D8C0009B189B004B44C418248A0137A74219D0E7
:10D8D00001A9631E0F804B800023624613707433CE
:10D8E000C05AFFF74BFF03B00CBC90469946F0BD01
:10D8F00042461B8912899A420FD001A901330B803D
:10D900004A80E9E7C3180A33D2B242549542D2D8CA
:10D910000123624600201370E5E70023721CF3E741
:10D920001B890A899342E8D1F2E7C0460023F0B58B
:10D930004E46454657469846E0B43A264246782732
:10D9400035007733C254374BC15D99460131C9B2B6
:10D950004D43C1554519C90004004944042228001B
:10D9600001F07BFF43462B7174232A00E05A01210A
:10D97000FFF700FF002804D11CBC90469946A24640
:10D98000F0BD79234246E254274AE35D924612688D
:10D99000002AF1D049465E43A619B37889789942A6
:10D9A0000CD0012AE8D94946897A9942E4D14B46FC
:10D9B000198933889942DFD1012305E049460F8850
:10D9C00031888F42EDD10023DB004B445B689C46DD
:10D9D000002BD1D0154E3368012BCDD87421615A5C
:10D9E000134C88461901C9188900671889464146B1
:10D9F0004D46798001216155614601337860396473
:10DA000033609342B8D1236C2000984753461B687B
:10DA1000012B04D9200084234430E3589847002385
:10DA20003360A9E7A02C0020B42C00209C2C0020FF
:10DA3000142C002000230121034A00201360034A14
:10DA40001170034A13607047B42C0020B02C0020E2
:10DA50009C2C0020F8B50C00002808D0002906D026
:10DA60000E4B1A780823002A03D11800F8BD0E23A4
:10DA7000FBE70B4E023B3568022DF6D0023B012D31
:10DA8000F3D8084FEB00FF180100042238000135DD
:10DA900001F0E3FE7C6035600023E6E7B02C002057
:10DAA000B42C0020A02C002070B504000D0000282C
:10DAB00025D0144B08201B78002B00D170BD124BD1
:10DAC0001B68002BFAD07926A35D0930002BF5D115
:10DAD0000E4A200013607422A1520632A354023A67
