:1000000000800020050B00004D0B00004F0B00008E
:1000100000000000000000000000000000000000E0
:10002000000000000000000000000000510B000074
:100030000000000000000000530B0000550B000002
:10004000570B0000570B000099090000570B0000E8
:10005000570B000000000000570B0000570B00007A
:10006000570B0000570B0000570B0000570B000008
:10007000570B0000570B0000570B0000570B0000F8
:10008000570B0000570B0000570B0000570B0000E8
:10009000570B0000570B0000570B0000570B0000D8
:1000A000570B0000570B000000000000000000008C
:1000B0000000000000000000000000000000000040
:1000C00010B5064C2378002B07D1054B002B02D02E
:1000D000044800E000BF0123237010BD6C00002025
:1000E00000000000181C0000084B10B5002B03D0C6
:1000F0000749084800E000BF07480368002B00D10B
:1001000010BD064B002BFBD09847F9E7000000001C
:1001100070000020181C00006C000020000000008F
:10012000164B002B00D1144B9D46402292029A1A86
:10013000924600218B460F461348144A121A00F0CB
:1001400067F80F4B002B00D098470E4B002B00D0C8
:1001500098470020002104000D000D48002802D01F
:100160000C4800E000BF00F02DF82000290000F04E
:10017000F9F800F011F8C0460000080000800020E7
:1001800000000000000000006C000020E4010020DE
:100190000000000000000000084B10B50400002B18
:1001A00002D0002100E000BF054B1868836A002BD5
:1001B00000D09847200000F033F8C046000000004F
:1001C000281B00000E4B70B500251E000D4CE41AD4
:1001D000A410A54204D0AB00F35898470135F8E7C6
:1001E00001F094FC084B00251E00084CE41AA410F2
:1001F000A54204D0AB00F35898470135F8E770BD2D
:1002000064000020640000206400002068000020DA
:1002100003008218934202D019700133FAE7704745
:10022000FEE7C0461D4B1B78012B00D070471C4BCE
:100230001B681B07FAD1F0221A4B1B68134018D118
:10024000194B1B6813421CD0154B1B681B07EDD1C3
:10025000F022144B1B681340402BE7D1124B1B6854
:100260001342E3D1C12380220121DB00D205D1500A
:10027000DCE7102B01D0302BEAD10B4B1B6813426B
:10028000E6D10A4A0A4B1A6080220A4B12021A600F
:10029000024B1B78012BD7D0C8E7C046E00F00F017
:1002A000E40F00F0E80F00F0EC0F00F0DFFF07C0F4
:1002B00004050040186C004010B50378022B02D0F2
:1002C000012B00D010BD40680022002100F058F83A
:1002D000F8E7C04630B5F020A02500230121032413
:1002E00089B04004ED050133202B0BD002001A41E8
:1002F0001142F8D01A00C132FF329200013354513A
:10030000202BF3D1A023F021A122DB054904D20048
:10031000995000210E4A01A8995002000D4B32CB92
:1003200032C20D4B0D4A0493012305930C4B04A9D3
:10033000069380235B000793FD3B00F0E1F8002863
:1003400003D00022002100F01BF809B030BDC046E8
:100350000C0500002C1B000088000020B9020000E2
:100360008C00002010B5FFF7B5FF044CFA204000C8
:1003700000F046F9200000F0EFFBF7E7381B000023
:10038000BFF34F8F024A034BDA60BFF34F8FFEE794
:100390000400FA0500ED00E010B500290DD0092396
:1003A000002A01D1180010BD541E2240FAD18260EB
:1003B00001608480C2600023F4E70E23F2E7C046A8
:1003C000030010B59C888068DA68121A04209442F1
:1003D00000D210BDDA68002014401A681155DA689E
:1003E0000132DA60F5E7C04610B58468C2680300E0
:1003F0000520944200D110BD98689A880240186880
:10040000825C00200A709A6801329A60F3E7C04665
:1004100070B516000C008D18002A05DD2078013417
:1004200000F0DAF8AC42F9D1300070BD10B50C0024
:10043000200000F0B7F80528FAD0012010BDC04612
:1004400030B5047885B0012C19D0022C34D0002CA2
:1004500001D005B030BD254D254C29002000FFF707
:10046000C3FF002823D0A268E3689A42F1D1032396
:1004700002AA13701F4B10001B689847E9E74368F6
:100480001D4D19782800FFF79BFF00281ED1AA6890
:10049000EB689B1A012B21D0AA68EB689B1AAA88EB
:1004A0009342D6D80121154800F0E8F9D1E701219F
:1004B000280000F089F9D6E702AB1C70C36802A8D7
:1004C000019303930B4B1B689847C2E702AB1C7068
:1004D000084B03901B6802A89847DDE702AB187031
:1004E000044B02A81B689847D6E7C0468C01002041
:1004F0009801002090010020A80100209401002014
:10050000F0B51E00214B050089B00C001A600720D1
:10051000002906D08A881E480968FFF73DFF002899
:1005200001D009B0F0BDA289A1681A48FFF734FFD5
:100530000028F6D16A46184B684692CB92C292CBFD
:1005400092C212CB12C2AB6806932B7906775A1E61
:10055000934103756B790E22591E8B415B421A4001
:100560004275EB780293AB7803932B7801936B7809
:1005700000930A4900F0A0F80028D2D100F0F6F963
:100580000121074800F07AF9CBE7C046900100202E
:10059000A801002098010020441B00004104000035
:1005A0009401002070B50A4C0500A168A288E36898
:1005B0005B1A9A4204D029002000FFF715FF70BD96
:1005C0000121044800F05AF90028F4D00520F6E78C
:1005D000A80100209401002010B504000648012164
:1005E000047000F0F1F8112800D010BD210003487C
:1005F000FFF7E6FEF9E7C046B801002098010020A9
:1006000082B00190019B002B14D0019B0A48013B52
:1006100001930138C046C046C046C046C046C046E9
:10062000C046C046C046C046C046C046F1D1019B48
:10063000002BEAD102B07047E7030000F0B50028B4
:100640001EDBFF261A4B37009C4603238208C02579
:10065000C0B20340DB0089019F40314099409200C5
:100660006244AD005459BC43214351511F23C02162
:1006700018401E3B83400E4A490053501360F0BDA2
:10068000FF250C4A2E00944603220F23C0B20240DD
:10069000D20089019640294091400340083B9B08C5
:1006A0009B006344DC69B4432143D961DEE7C04663
:1006B00000E100E000ED00E0F0B557464E4645464B
:1006C000E0B4394C0300A27D0820002A04D01CBCF1
:1006D00090469946A246F0BD002B62D01A68A02031
:1006E0000325C132FF32C005920015500122AA46EF
:1006F0001D68AA40A125ED004251A94600255A686F
:10070000AC46C132FF32920015509E69274A284DEF
:1007100056515D7DA84646461D7D3543254E955173
:100720005D681E68A846244D56514646234D5651D5
:100730001D7D012D1AD19E683700E0267600B04657
:100740004744BE0067463750C137FF37B846574663
:10075000DE684644B6003750DE68B5404E468551E7
:10076000D8689D689051A220C00015501A69616038
:100770002260002908D0197FC12311480B4A9B0031
:10078000D0500220FFF75AFFA0230421074ADB00C4
:10079000D15000230122E374A374A2756375002075
:1007A00095E70922074B9AE7BC0100200020004092
:1007B000240500006C0500000C0500001405000075
:1007C00080000200641B0000F0B5264A0400937C00
:1007D0001120002B00D0F0BD01259174224823493F
:1007E000138294600B6005600B60138AE05C138ACF
:1007F0001F4C01339BB213821E4BE05050680028FF
:1008000001D00020E7E7002726001D000130FF305F
:10081000947C138A9C4203D812E0138A834202D04C
:100820000B68002BF9D0138A8342F2D00F60138A31
:100830009468E45C138A01339BB213827451E7E736
:100840008023118A5B0099420AD008490B68002B6B
:10085000FCD001210020084B196000239374BAE7F3
:100860000F20FAE7BC010020082000401C210040B6
:10087000002000401C0500000C200040F0B5474659
:1008800080B4344B1122DC7C002C03D0100004BC5B
:100890009046F0BD5A7DD974D8601C75002A0AD0E4
:1008A0005A68002A0FD08121C1232B4A89009B005E
:1008B000D1500022EAE729490A6029490A6001214A
:1008C000254A1160ECE7244A244E9446A322D20024
:1008D0009046234C234D316820682A6800280BD1AC
:1008E000002A28D10029F6D000221E490A601B499F
:1008F0000A60DA740332C9E70029F5D1002A1CD155
:10090000474660462260197DC059DF687854197DDA
:10091000D87C0131C9B21975197D8842DBD81149DB
:100920000A600E490A60DA745B7D002B0DD001214C
:10093000094B1960AAE70029D6D1002209490A60AB
:1009400006490A60DA740F32A0E70121064B1960EC
:100950009CE7C046BC01002000200040242100404C
:10096000082100404421004004200040064A537DF5
:10097000002B07D105490B6005490B600549013380
:100980000B6053757047C046BC0100202421004015
:100990000821004000200040C12210B5514B9200B8
:1009A0009A5884B092054CD54F4A1168002948D016
:1009B000002111608121C2228900920099504B4B85
:1009C0005A7D002A02D10121494A1160022269465A
:1009D0000A7090214348C900425842506946039228
:1009E000DA7C68460A72DA68196801920022DA74C1
:1009F0005B6898473F4A1368002B10D03B4B188A1E
:100A0000997C814251D9002111601A8A9968895CC8
:100A10001A8A013292B21A82374B324AD150374B7E
:100A20001A68002A0BD000221A60304B5A7D002A27
:100A300002D001212B4A1160DA7C002A44D104B093
:100A400010BDC123274A9B00D3585B07D2D52C4B3E
:100A500019680029CED00021A3241960234BE4009B
:100A6000187DD96812590A541A7DD87C0132D2B245
:100A70001A751A7D9042BDD15A7D002A02D10120FB
:100A80001B4A10608124C2221648A40092008450A0
:100A90006C461A7D01202272002220700191DA74C6
:100AA000196868465B689847A4E700201060002931
:100AB000B5D06A46107011729A68987419680192DC
:100AC0005B6868469847AAE768461A7D012102726A
:100AD000DA680170019200221968DA745B6898473D
:100AE000ADE7C0460020004024210040BC010020AA
:100AF000042000401C2100401C050000442100404F
:100B00000821004003210A4802680A43026009489C
:100B100002680A4302600849084A094B9B1A03DD30
:100B2000043BC858D050FBDC0648804706480047C5
:100B30002405004054050040201C00000000002057
:100B40006C0000202502000021010000FEE7FEE706
:100B5000FEE7FEE7FEE7FEE70FB40B4B13B51C689C
:100B6000002C05D0A369002B02D1200000F050F822
:100B700005AB049AA1682000019300F05BF916BC54
:100B800008BC04B01847C0466000002010B50249F8
:100B900000F0B0F810BDC0463D170000002310B5AE
:100BA000040003604360836081814366C281036106
:100BB00043618361190008225C30FFF729FB054B74
:100BC00024626362044BA362044BE362044B23631D
:100BD00010BDC046B1130000D9130000111400006D
:100BE0003D14000070B568254B1E5D430E002900C2
:100BF000743100F0A1F8041E08D000212A00016021
:100C000046600C30A0606832FFF702FB200070BD28
:100C1000836913B50400002B28D18364C364036582
:100C2000134B144A1B6882620193984201D101233D
:100C30008361200000F020F86060200000F01CF8C4
:100C4000A060200000F018F80022E0600421606835
:100C5000FFF7A4FF01220921A068FFF79FFF0222EE
:100C60001221E068FFF79AFF0123A36113BDC0467C
:100C7000281B00008D0B0000F8B51D4B06001D68F9
:100C8000AB69002B02D12800FFF7C2FF4835AC68E2
:100C90006B68013B05D40C22A75E002F10D068348E
:100CA000F7E72B68002B01D02D68F0E70421300016
:100CB000FFF798FF28600028F6D10C23336016E078
:100CC000012320005B42E3810233A3816766276032
:100CD000A760676027616761A7615C3008223900FF
:100CE000FFF796FA20006763A763A764E764F8BD7F
:100CF000281B0000F7B504000700002601914834C6
:100D0000002C16D06368A5680093009B013B0093FC
:100D10000DD4AB89012B08D90E22AB5E013304D070
:100D200029003800019B984706436835EDE72468A1
:100D3000E6E73000FEBD0000032370B5CD1C9D43E7
:100D4000083506000C2D01D20C2505E0002D03DA34
:100D50000C230020336040E0A942F9D81F4B1C68E7
:100D60001A002100002913D00B685B1B0DD40B2B3C
:100D700002D90B60CC181EE08C4202D1636813606C
:100D80001AE04B6863600C0016E00C004968E9E764
:100D9000134C2368002B03D1300000F0F7FA2060D9
:100DA0002900300000F0F2FA431CD1D00323C41C08
:100DB0009C43A0420AD12560200007220B30231D4E
:100DC0009043C31A09D05A42E25006E0211A30007B
:100DD00000F0DCFA431CEED1BAE770BDD801002068
:100DE000D4010020936810B5013B9360002B05DA15
:100DF0009469A34208DBCBB20A2B05D01368581CB8
:100E000010601970C8B201E000F01EFB10BDF8B50B
:100E100006000F001400D518AC4208D021783A0023
:100E20003000FFF7DFFF0134431CF5D100E0002064
:100E3000F8BD0000F0B59FB006000F0002920593C8
:100E4000002804D08369002B01D1FFF7E1FE7F4B1E
:100E50009F4201D1776808E07D4B9F4201D1B7687E
:100E600003E07C4B9F4200D1F768BB891B070AD582
:100E70003B69002B07D0002306AD6B6120336B76F6
:100E80001033AB763DE03900300000F049FB00281C
:100E9000F1D001204042D6E0059A111D126805915B
:100EA000002A00DA7FE00992013423782E2B00D14A
:100EB0008DE021780322684800F0E4FC002807D088
:100EC000654B2A68C01A4023834013432B600134CA
:100ED0002178631C062261480293297600F0D2FC37
:100EE000002800D19DE05E4B002B00D090E007224F
:100EF000059B07339343083305936B69039A9B184B
:100F00006B61029C2378002B04D1029BE31A0493AB
:100F100012D003E0252BF8D00134F3E7049B029AAA
:100F200039003000FFF773FF431C00D186E06A6987
:100F3000049B944663446B612378002B7ED001228E
:100F4000002352426A6002A95432521801342B60C5
:100F5000EB60AB601370AB6521780522414800F06F
:100F600091FC002808D03F4B2A68C01A0123834017
:100F700013432B600134EFE72B68DA0604D55322C4
:100F8000202102A8121811701A0704D553222B2110
:100F900002A81218117022782A2A00D17CE7099B36
:100FA00000200A2105E05242EA60022213432B602E
:100FB0007AE72278303A092A04D84B4301349B1847
:100FC0000120F6E7002800D16FE709936DE7637809
:100FD0002A2B0AD1059B02341A1D1B680592002B8F
:100FE00001DA01235B42079363E700230A201A001A
:100FF00001346B6021783039092904D84243013427
:1010000052180123F6E7002B00D152E7079250E770
:1010100005AB00933A00144B2900300000E000BFFC
:1010200007E005AB00933A000F4B2900300000F0B9
:101030008BF80390039B013300D05EE7BB895B060E
:1010400000D526E70B981FB0F0BDC046841B0000FA
:10105000A41B0000C41B0000EA1B0000EE1B0000E4
:1010600000000000E41B00000F0E0000F7B51700A1
:1010700001938A680B6900900C00934200DA130018
:1010800022003B6043321278002A01D001333B60DA
:1010900023689B0602D53B6802333B600625236824
:1010A0001D401ED0230043331B785A1E93412268F3
:1010B00092061CD53020E1184331087021005A1CDB
:1010C00045310978A2184332023311700FE0220033
:1010D0000123193201990098089EB047431C0ED095
:1010E0000135E3683A689B1A9D42F0DBDAE722009B
:1010F000019943320098089DA847431C02D1012062
:10110000404220E006232068E1683A680340002559
:10111000042B03D18D1AEB43DB171D40A368226912
:10112000934201DD9B1AED180027BD420AD0220030
:1011300001231A3201990098089EB047431CDED063
:101140000137F2E70020FEBDF0B58BB006920A0031
:1011500043320793059004920A7E0C00109B6E2A7E
:1011600000D1ABE011D8632A22D009D8002A00D1DF
:10117000B5E0582A00D0C5E045310A70814A4FE0F9
:10118000642A1DD0692A1BD0BCE0732A00D1AAE0D2
:1011900009D86F2A29D0702A00D0B3E0202209682C
:1011A0000A43226037E0752A1FD0782A33D0A9E09D
:1011B0000E001A684236111D196013683370A4E0DE
:1011C00021681A68080606D4490604D5111D19605D
:1011D0000023D55E02E0111D19601568002D3BDA71
:1011E0002D23049A6D42137036E021681A680806B0
:1011F00006D4490604D51568111D1960ADB202E088
:10120000111D196015685F4B227E039308276F2A12
:101210001DD00A271BE022007821453211705A4A5E
:1012200019680392081D226818600D68100602D420
:10123000500600D5ADB2D30702D520231A43226051
:101240001027002D03D1202322689A432260230017
:10125000002243331A7002E00A274A4B0393636863
:10126000A360002B09DB0422216891432160002D3B
:1012700005D1049E002B11D07BE0002D79D0049E77
:101280002800390000F00EFC039B013E5B5C280047
:101290003370390000F080FB051EF1D1082F09D111
:1012A0002368DB0706D563682269934202DC30239A
:1012B000013E3370049B9B1B23612BE009681A6875
:1012C000080607D4490605D5111D19601368A28ABE
:1012D0001A8004E0111D1960136862691A60002306
:1012E000049E236116E01A68111D1960166800211A
:1012F0006268300000F0C6FA002801D0801B6060F0
:10130000636803E026004236327001232361002324
:10131000049A1370079B09AA00932100069B059865
:10132000FFF7A4FE431C02D10120404227E02369BD
:10133000320006990598079DA847431CF4D02368FE
:1013400000259B070FD4099BE068984217DA180024
:1013500015E022000123193206990598079EB0472F
:10136000431CE1D00135E368099A9B1A9D42F0DBEA
:10137000E9E72600039B42361B7833708EE70BB0FB
:10138000F0BDC046F51B0000061C0000002370B530
:10139000064C05000800236000F0AAFB431C03D1A3
:1013A0002368002B00D02B6070BDC046E0010020F8
:1013B00070B50C000E25495F00F0B6FA002803DB7B
:1013C000636D1B18636503E0A289024B1340A38180
:1013D00070BDC046FFEFFFFFF8B51F008B89050009
:1013E0000C001600DB0505D50E23C95E0022022382
:1013F00000F0D0F9A289054B28001340A3813200E8
:101400000E23E15E3B0000F077F8F8BDFFEFFFFF31
:1014100070B50C000E25495F00F0BCF9A389421C91
:1014200003D1054A1340A38104E0802252011343F3
:10143000A381606570BDC046FFEFFFFF10B50E23AE
:10144000C95E00F0E3F810BDF8B505000F00140008
:10145000002804D08369002B01D1FFF7D9FB234B6F
:101460009C4201D16C6808E0214B9C4201D1AC68E0
:1014700003E0204B9C4200D1EC68A369A360A389E0
:101480001B070AD52369002B07D023682269FEB207
:10149000981A636998420FDB08E02100280000F0E9
:1014A0003FF80028F1D0012040421DE02100280033
:1014B00000F044F90028F6D1A3680130013BA36095
:1014C00023685A1C22601F706369984205D0A38963
:1014D0003000DB0708D50A2E06D12100280000F0D5
:1014E0002DF90028DFD13000F8BDC046841B000074
:1014F000A41B0000C41B000070B50500080011000B
:101500000022064C22601A00FEF782FF431C03D122
:101510002368002B00D02B6070BDC046E001002086
:10152000364B70B51D6806000C00002D05D0AB6968
:10153000002B02D12800FFF76BFB314B9C4201D1FD
:101540006C6808E02F4B9C4201D1AC6803E02E4B45
:101550009C4200D1EC680C22A35E9AB2110723D4FE
:10156000D10607D409220120326037321343A38108
:10157000404242E0530713D5616B002908D0230095
:101580004433994202D0300000F088F900236363AD
:101590002422A3899343A3810023636023692360EA
:1015A0000822A3891343A3812369002B0BD1A02315
:1015B000A2899B00134080229200934203D0210015
:1015C000300000F021F90123A289134005D0002347
:1015D000A36063695B42A36103E0920700D463697F
:1015E000A36000202369834207D10C22A35E1A0660
:1015F00003D540221343A381013870BD6000002051
:10160000841B0000A41B0000C41B0000002370B555
:10161000064C05000800236000F04AFA431C03D181
:101620002368002B00D02B6070BDC046E001002075
:10163000F7B58A8905000C0013075AD44B68002BB4
:1016400002DC0B6C002B19DDE76A002F16D000239B
:101650002E682B6080235B011A4001D0606D14E07E
:101660000123216A2800B847431C0ED12B68002BA8
:101670000BD01D2B01D0162B02D12E6000205AE07A
:101680004022A3891343A38155E0A3895B0706D5B4
:101690006368C01A636B002B01D0236CC01A00234F
:1016A0000200216A2800E76AB847A389421C06D1D4
:1016B00029681D293AD8204ACA40D20736D50022C7
:1016C000626022692260DB0405D5431C02D12B68CD
:1016D000002B00D16065616B2E600029CED0230005
:1016E0004433994202D0280000F0D8F8002060630B
:1016F00021E00F69002FC1D00B680F60DB1B019345
:101700000023920700D14B69A36003E0019B3F18BF
:101710001B1A0193019B002BB0DD019B3A00216A4B
:101720002800A66AB0470028F0DCA38940220120E7
:101730001343A3814042FEBD010040200B6970B5F8
:1017400005000C00002B01D100201CE0002804D073
:101750008369002B01D1FFF75BFA0B4B9C4201D14F
:101760006C6808E0094B9C4201D1AC6803E0084B6F
:101770009C4200D1EC680C22A35E002BE4D0210037
:101780002800FFF755FF70BD841B0000A41B00005C
:10179000C41B000070B50500080011000022064CB3
:1017A00022601A0000F09CF9431C03D12368002B2F
:1017B00000D02B6070BDC046E001002070B50E0067
:1017C0001D000E23C95E90B01400002906DA002324
:1017D0002B60B3891B060FD540230FE001AA00F050
:1017E000B7F80028F3DBF023029A1B021340054AE6
:1017F0009B185A4253412B608023DB00002023605A
:1018000010B070BD00E0FFFFF7B502268B89050020
:101810000C00334210D101AB6A46FFF7CFFF0099AD
:1018200007002800FFF788FA00280CD10C22A35EDD
:101830009A0523D43343A3812300473323602361D4
:10184000012363611AE080220D4BAB62A389206003
:101850001343A381009B20616361019B002B0AD08D
:101860000E23E15E280000F085F8002803D0012255
:10187000A3891343A381A3891F43A781F7BDC04652
:101880008D0B0000C9B28218904204D003788B42BD
:1018900002D00130F8E700207047000030B5002981
:1018A0003ED004390B68002B00DAC9181D4A1368B2
:1018B0001400002B02D14B60116031E08B420DD936
:1018C0000A688818834203D118685B6882180A6026
:1018D0004B60216024E08A4203D813005A68002A32
:1018E000F9D11D685C198C420BD109686918581828
:1018F0001960824214D110685268411819605A6008
:101900000EE08C4202D90C23036009E008680C1831
:10191000A24203D114685268201808604A605960D6
:1019200030BDC046D801002070B505000800110088
:101930000022064C22601A00FEF778FD431C03D1FA
:101940002368002B00D02B6070BDC046E001002052
:10195000002370B5064C050008001100236000F05C
:10196000AFF8431C03D12368002B00D02B6070BD5F
:10197000E0010020002370B5064C0500080023603C
:1019800000F0A6F8431C03D12368002B00D02B6085
:1019900070BDC046E0010020002243088B4274D392
:1019A00003098B425FD3030A8B4244D3030B8B4260
:1019B00028D3030C8B420DD3FF22090212BA030C69
:1019C0008B4202D31212090265D0030B8B4219D34A
:1019D00000E0090AC30B8B4201D3CB03C01A52416A
:1019E000830B8B4201D38B03C01A5241430B8B42B2
:1019F00001D34B03C01A5241030B8B4201D30B039B
:101A0000C01A5241C30A8B4201D3CB02C01A5241C1
:101A1000830A8B4201D38B02C01A5241430A8B4284
:101A200001D34B02C01A5241030A8B4201D30B026D
:101A3000C01A5241CDD2C3098B4201D3CB01C01A87
:101A4000524183098B4201D38B01C01A5241430991
:101A50008B4201D34B01C01A524103098B4201D37F
:101A60000B01C01A5241C3088B4201D3CB00C01AEC
:101A7000524183088B4201D38B00C01A5241430864
:101A80008B4201D34B00C01A5241411A00D2014689
:101A9000524110467047FFE701B5002000F006F8FC
:101AA00002BDC0460029F7D076E770477047C046B0
:101AB00058220120014B40421A607047E00100208B
:101AC00058220120014B40421A607047E00100207B
:101AD0005822024B00201A607047C046E0010020E7
:101AE00058220120014B40421A607047E00100205B
:101AF000044A1368002B03D01818106018007047B0
:101B0000014BF9E7DC010020E8010020F8B5C046F0
:101B1000F8BC08BC9E467047F8B5C046F8BC08BC87
:101B20009E46704743000000000000200B09080A91
:101B30000100000000509D0075617274207465738F
:101B4000740D0A00090000000B0000000A000000EC
:101B500008000000000000000000000000509D0090
:101B600003000000090000000B0000000A00000054
:101B700008000000000000000000000000509D0070
:101B80000300000000000000000000000000000052
:101B90000000000000000000000000000000000045
:101BA0000000000000000000000000000000000035
:101BB0000000000000000000000000000000000025
:101BC0000000000000000000000000000000000015
:101BD0000000000000000000000000000000000005
:101BE00000000000232D302B2000686C4C0065663F
:101BF000674546470030313233343536373839415E
:101C00004243444546003031323334353637383973
:081C1000616263646566000077
:081C180008E5FF7F0100000058
:101C200000000000841B0000A41B0000C41B000077
:101C300000000000000000000000000000000000A4
:101C4000241B000000000000000000000000000055
:101C50000000000000000000000000000000000084
:101C60000000000000000000000000000000000074
:101C70000000000000000000000000000000000064
:0C1C800000000020E9000000C10000008E
:0400000300000B05E9
:00000001FF
